:1000000071C000008EC000008CC000008AC00000DB
:1000100088C0000086C0000084C0000082C00000CC
:1000200080C000007EC000007CC000007AC00000DC
:1000300078C0000076C0000074C0000072C00000EC
:1000400070C000006EC000006CC000006AC00000FC
:1000500068C000007CC3000064C0000062C00000F3
:1000600060C000005EC000005CC000005AC000001C
:1000700058C0000098C0000054C0000052C00000EA
:1000800050C000004EC000004CC000004AC000003C
:1000900048C0000046C0000044C0000042C000004C
:1000A00040C000003EC000003CC000003AC000005C
:1000B00038C0000036C0000034C0000032C000006C
:1000C00030C000002EC000002CC000002AC000007C
:1000D00028C0000026C0000024C0000022C000008C
:1000E00020C0000011241FBECFEFD1E2DEBFCDBF84
:1000F00000E00CBF14E0A0E0B2E0E4EDFEE000E0C0
:100100000BBF02C007900D92AA32B107D9F724E0C5
:10011000AAE2B4E001C01D92AB33B207E1F76BD2A3
:10012000D7C66ECFF89480912D0490912E04A091A3
:100130002F04B09130040196A11DB11D80932D04B0
:1001400090932E04A0932F04B0933004089510923E
:100150007C0010927A0010927B00089580912D040B
:1001600090912E04A0912F04B09130040097A10526
:10017000B10541F48CE192E09F938F9383D30F906C
:100180000F9008950197A109B10980932D049093D0
:100190002E04A0932F04B0933004892B8A2B8B2B31
:1001A00009F4789408951F920F920FB60F921124BC
:1001B0008F939F93809178009091790090932C0475
:1001C00080932B0481E080932A049F918F910F905C
:1001D0000FBE0F901F901895CF93DF93EC01A2DF15
:1001E00080912A04882351F080912B0490912C0453
:1001F0009983888310922A04C1E001C0C0E0AEDF79
:100200008C2FDF91CF9108950F931F93CF93DF939E
:100210009EDFECE7F0E0808180648083CAE7D0E075
:100220008881856088830BE710E0D8018C9183601A
:100230008C938881886088838881806288838881A4
:100240008068888380811F928F9386E592E09F93D8
:100250008F9318D388811F928F938BE692E09F93A0
:100260008F9310D3F80180811F928F9385E892E0DD
:100270009F938F9307D38DB79EB70C960FB6F894C4
:100280009EBF0FBE8DBFDF91CF911F910F9108953B
:1002900085B1806285B9000085B18F7D85B90895EB
:1002A000CF93C82F662331F0E2E0F1E080818064D3
:1002B000808305C0E2E0F1E080818F7B808385B19F
:1002C0008F7E85B98DB180628DB983B3806283BB27
:1002D0008DB188608DB9E1E0F1E080818860808334
:1002E000E2E0F1E08081877F80838EB1877F8EB9E5
:1002F00084B38F7D84BB8EB18F7D8EB9CC231CF4EB
:10030000808188608083C6FF03C08EB188608EB90B
:10031000C5FF03C084B3806284BBC4FF03C08EB139
:1003200080628EB9B5DFE2E0F1E08081877F808373
:100330008EB1877F8EB984B38F7D84BB8EB18F7D64
:100340008EB9C3FF03C0808188608083C2FF03C071
:100350008EB188608EB9C1FF03C084B3806284BB54
:10036000C0FF03C08EB180628EB992DF8EB1806211
:100370008EB984B3806284BB8EB188608EB9E2E0AE
:10038000F1E0808188608083CF910895882331F0E7
:10039000E2E0F1E080818064808305C0E2E0F1E08A
:1003A00080818F7B808385B1806185B98DB18F7DA0
:1003B0008DB983B38F7D83BB8DB1877F8DB9E1E02C
:1003C000F1E08081877F808385B1806285B90000FC
:1003D000659902C080E001C080E1959980626399CF
:1003E00080649091000193FD806895B19F7D95B9DF
:1003F000000095B1906295B900006599816095996A
:100400008260639984609091000193FD886095B14A
:100410009F7D95B9089580E0B9DF8823E4F300C09B
:1004200000C080E0B3CF0895CF93C82FF4DF60E021
:100430008C2F36DFCF91089581E0F6CF0895CF93CA
:10044000C82FE9DFCA3041F4803410F480E401C0E1
:1004500080E08058E9DF03C061E08C2F21DFCF917D
:100460000895CF93DF93FC0102C0E9DFFE01EF01A5
:10047000219680818111F9CFDF91CF910895CF939B
:10048000C82FE1E0F1E080818064808384B18061E5
:1004900084B984B1806284B98DB180628DB983B32F
:1004A000806283BB8DB188608DB9808188608083D4
:1004B0008FE99FE00197F1F700C0000084B38062EC
:1004C00084BB8EB180628EB9E3DE81EE94E0019749
:1004D000F1F700C00000DCDE95E19A95F1F700002D
:1004E000D7DE85E18A95F1F700008EB18F7D8EB958
:1004F000CFDE95E19A95F1F7000088E295DF88E07C
:1005000093DF9ADF86E090DF8C2F8EDFCF91089506
:100510008111FFCF08950F931F93CF93DF938C0129
:1005200060E270E0A4D1D82F8032A1F48FE992E08C
:10053000C1D1C0E007C0F801EC0FF11D808190E04F
:10054000B4D1CF5FCD17B8F385E293E0B3D181E0AA
:10055000DFDF0DC01F930F938EED92E09F938F937B
:1005600091D1C8017EDF0F900F900F900F90DF9117
:10057000CF911F910F91089581EF92E09BD168D1A7
:10058000C7DF87B1877F87B988B1877F88B980E166
:1005900093E090D101D187E293E08CD135DE8AE3FC
:1005A00093E088D183B7817F83BF85E593E082D1D3
:1005B000789484E793E07ED18CE061DF89E893E072
:1005C00079D18BE993E076D137DF83EB93E072D179
:1005D00081EC93E0A0DF87EC93E06CD12FE38DE01A
:1005E00093E0215080409040E1F700C0000080EE91
:1005F00093E060C10895CF93DF93CDB7DEB76297E4
:100600000FB6F894DEBF0FBECDBFB6DF1A821982D7
:10061000C12CD12C7601CE010196DEDD8823D9F0E4
:100620008A818F9389818F9387EE93E09F938F9335
:100630001F9280E18F938E010D5F1F4F1F930F93C9
:1006400069D18AEE93E067DFC80165DF0FB6F894E1
:10065000DEBF0FBECDBFC7D0DC01CB01689415F85B
:10066000B695A795979587951694D1F712C083B73D
:10067000816083BF889583B78E7F83BFB4D0DC0150
:10068000CB01689415F8B695A7959795879516941C
:10069000D1F7C816D906EA06FB0649F36C017D01BD
:1006A000BACFF89480912D0490912E04A0912F043C
:1006B000B09130040196A11DB11D80932D0490933B
:1006C0002E04A0932F04B0933004089514BC15BCDD
:1006D00016BC17BC18BC10926E0015BA089594B5DC
:1006E000482F4370942B94BD95B582FB222720F9A7
:1006F00030E0220F331F220F331F220F331F292B0D
:1007000025BD089580912D0490912E04A0912F0471
:10071000B09130040097A105B10541F48CE192E05D
:100720009F938F93AFD00F900F9008950197A109D9
:10073000B10980932D0490932E04A0932F04B093BD
:100740003004892B8A2B8B2B09F4789408951F92FF
:100750000F920FB60F9211248F939F93AF93BF9375
:100760008091310490913204A0913304B09134040B
:100770000196A11DB11D8093310490933204A09382
:100780003304B0933404BF91AF919F918F910F9038
:100790000FBE0F901F90189599DF82E0A0DF85B5FE
:1007A000856085BD8CE987BDEEE6F0E080818260E2
:1007B000808316BC84B51F928F9389EF93E09F933B
:1007C0008F9360D085B51F928F9381E194E09F93C2
:1007D0008F9358D08DB79EB708960FB6F8949EBFEA
:1007E0000FBE8DBF0895CF92DF92EF92FF9259DF37
:1007F000C0903104D0903204E0903304F09034047F
:1008000081DFC701B601FF90EF90DF90CF90089590
:100810009093C5008093C400E1ECF0E08081886192
:100820008083E2ECF0E080818E6080830895909177
:10083000C00095FFFCCF8093C60080E090E0089553
:100840008091C0008823E4F78091C60090E008956D
:1008500087E690E0DDDFE5E3F4E08EE092E093836D
:10086000828380E092E09183808380E00895FC01A0
:100870006150704001900110D8F7809590958E0FCF
:100880009F1F0895CF93DF93CDB7DEB7AE014A5FC8
:100890005F4FFA0161917191AF018091370490919E
:1008A000380474D0DF91CF9108956091370470912E
:1008B000380474C20F931F93CF93DF93E0913704F2
:1008C000F0913804238121FF1BC08C01D0E0C0E0EF
:1008D000F80181918F016091370470913804DB0138
:1008E0001896ED91FC911997882331F01995892B71
:1008F00079F3DFEFCFEFECCF8AE01995892B19F070
:100900008FEF9FEF02C08D2F9C2FDF91CF911F9112
:100910000F9108950F931F93CF93DF93CDB7DEB759
:100920002E970FB6F894DEBF0FBECDBF0E891F897C
:10093000888D998D26E02C831A83098397FF02C046
:1009400080E090E801979E838D83AE01445E5F4F07
:100950006A8D7B8DCE01019619D04D815E8157FD48
:100960000AC02F813885421753070CF49A01F80109
:10097000E20FF31F10822E960FB6F894DEBF0FBE63
:10098000CDBFDF91CF911F910F9108952F923F928C
:100990004F925F926F927F928F929F92AF92BF928F
:1009A000CF92DF92EF92FF920F931F93CF93DF933B
:1009B000CDB7DEB72B970FB6F894DEBF0FBECDBF15
:1009C0006C017B018A01FC0117821682838181FF01
:1009D000BFC1CE0101963C01F6019381F70193FD61
:1009E000859193FF81917F01882309F4ADC1853200
:1009F00039F493FD859193FF81917F01853221F434
:100A0000B60190E0CBD1E8CF912C212C312CFFE125
:100A1000F315D8F08B3279F038F4803279F08332E4
:100A2000A1F4232D20611DC08D3261F0803369F463
:100A3000232D216016C0832D8260382EE32DE460C3
:100A40003E2E2AC0F32DF8601DC037FC2DC020EDCE
:100A5000280F2A3040F08E32B9F436FC75C1232DB0
:100A60002064322E19C036FE06C08AE0989E200D02
:100A70001124922E11C0EAE02E9E200D1124222E68
:100A8000F32DF0623F2E08C08C3621F4832D806850
:100A9000382E02C0883641F4F70193FD859193FF0B
:100AA00081917F018111B3CF982F9F7D9554933011
:100AB00028F40C5F1F4F9FE399830DC0833631F0FC
:100AC000833771F0833509F055C020C0F80180816B
:100AD00089830E5F1F4F88248394912C530112C089
:100AE0002801F2E04F0E511CF801A080B18036FEC3
:100AF00003C0692D70E002C06FEF7FEFC501B7DE64
:100B00004C018201F32DFF773F2E15C0280122E012
:100B1000420E511CF801A080B18036FE03C0692D41
:100B200070E002C06FEF7FEFC5012DD14C01F32DB6
:100B3000F0683F2E820133FC19C0822D90E08816A8
:100B40009906A0F4B60180E290E028D12A94F5CF6E
:100B5000F50137FC859137FE81915F01B60190E088
:100B60001DD121102A9421E0821A91088114910448
:100B700079F7E1C0843611F0893639F5F80137FE8E
:100B800007C060817181828193810C5F1F4F08C013
:100B900060817181072E000C880B990B0E5F1F4F2F
:100BA000F32DFF763F2E97FF09C0909580957095A5
:100BB00061957F4F8F4F9F4FF0683F2E2AE030E0C6
:100BC000A30128D1882E861844C0853731F4232DFF
:100BD0002F7EB22E2AE030E025C0932D997FB92ECA
:100BE0008F36C1F018F4883579F0AEC0803719F02F
:100BF000883721F0A9C0E92FE061BE2EB4FE0DC0F8
:100C0000FB2DF460BF2E09C034FE0AC0292F2660D8
:100C1000B22E06C028E030E005C020E130E002C07E
:100C200020E132E0F801B7FE07C060817181828166
:100C300093810C5F1F4F06C06081718180E090E05E
:100C40000E5F1F4FA301E6D0882E8618FB2DFF777D
:100C50003F2E36FE0DC0232D2E7FA22E891458F470
:100C600034FE0BC032FC09C0832D8E7EA82E05C039
:100C7000B82CA32C03C0B82C01C0B92CA4FE0FC003
:100C8000FE01E80DF11D8081803321F49A2D997EBB
:100C9000A92E09C0A2FE06C0B394B39404C08A2D45
:100CA000867809F0B394A3FC10C0A0FE06C0B2146D
:100CB00080F4280C922C9B180DC0B21458F4B60185
:100CC00080E290E06BD0B394F8CFB21418F42B18F4
:100CD00002C0982C212CA4FE0FC0B60180E390E046
:100CE0005DD0A2FE16C0A1FC03C088E790E002C060
:100CF00088E590E0B6010CC08A2D867851F0A1FEFF
:100D000002C08BE201C080E2A7FC8DE2B60190E058
:100D100045D0891430F4B60180E390E03FD09A9436
:100D2000F8CF8A94F301E80DF11D8081B60190E0BF
:100D300035D08110F6CF222009F44ECEB60180E2E4
:100D400090E02CD02A94F7CFF6018681978102C0DB
:100D50008FEF9FEF2B960FB6F894DEBF0FBECDBF7F
:100D6000DF91CF911F910F91FF90EF90DF90CF9087
:100D7000BF90AF909F908F907F906F905F904F90BB
:100D80003F902F900895FC01059061507040011034
:100D9000D8F7809590958E0F9F1F08950F931F93FE
:100DA000CF93DF93FB01238121FD03C08FEF9FEFE2
:100DB0002CC022FF16C046815781248135814217FD
:100DC000530744F4A081B1819D012F5F3F4F3183D0
:100DD00020838C93268137812F5F3F4F3783268373
:100DE00014C08B01EC01FB010084F185E02D199505
:100DF000892BE1F6D80116968D919C911797019653
:100E000017969C938E931697CE01DF91CF911F91E9
:100E10000F910895FA01AA27283051F1203181F16C
:100E2000E8946F936E7F6E5F7F4F8F4F9F4FAF4FF2
:100E3000B1E03ED0B4E03CD0670F781F891F9A1F05
:100E4000A11D680F791F8A1F911DA11D6A0F711DB9
:100E5000811D911DA11D20D009F468943F912AE0C5
:100E6000269F11243019305D3193DEF6CF010895AD
:100E7000462F4770405D4193B3E00FD0C9F7F6CFDE
:100E8000462F4F70405D4A3318F0495D31FD4052A6
:100E9000419302D0A9F7EACFB4E0A695979587953C
:100EA00077956795BA95C9F700976105710508951B
:100EB0009B01AC010A2E06945795479537952795C7
:100EC000BA95C9F7620F731F841F951FA01D08955F
:040ED000F894FFCFC4
:100ED40000000001000000000000200400000000E9
:100EE4000002000000001704000000005741524EA9
:100EF400494E473A20547279696E6720746F2065B1
:100F040078697420637269746963616C20736573B2
:100F140073696F6E207768696C65206E6F742069E1
:100F24006E2069742E004144435F4D554C54495022
:100F34004C455845523A2025780A004144435F43C2
:100F44004F4E54524F4C5F5354415455535F413AA2
:100F54002025780A004144435F434F4E54524F4C7E
:100F64005F5354415455535F423A2025780A004652
:100F740061696C656420746F207072696E74204CB2
:100F8400434420737472696E672E20546F6F20621D
:100F94006967206F72206C61636B73204E554C4CF3
:100FA4002D7465726D696E61746F722E0D004C4301
:100FB40044206F75747075743A20272573270D0AC1
:100FC4000053657474696E672075702074686520B9
:100FD40073657269616C20706F72742E2E2E0D0011
:100FE40053657474696E672075702054696D6572F9
:100FF40020302E2E2E0D0053657474696E67207593
:1010040070204144432E2E2E0D00436F6E66696797
:101014007572696E6720736C656570206D6F6465A9
:101024002E2E2E0D00456E61626C696E6720676C12
:101034006F62616C20696E74657272757074732E60
:101044002E2E0D00496E697469616C697A696E6748
:10105400204C43442E2E2E0D004C434420696E69CF
:101064007469616C697A65642E0D00436C65617204
:10107400696E67204C43442073637265656E2E2E3F
:101084002E0D004C434420636C65617265642E0D23
:101094000052656164790057616974696E672066FE
:1010A4006F722031207365636F6E642E2E2E0D00D7
:1010B400446F6E652E0D002575005468652041440B
:1010C4004320726573756C7400434F4E54524F4CF9
:1010D4005F52454749535445525F413A2025780AA7
:1010E40000434F4E54524F4C5F5245474953544569
:0A10F400525F423A2025780A0000FE
:00000001FF
