:100000000C9476000C9497000C9497000C94970035
:100010000C9497000C9497000C9497000C94970004
:100020000C9497000C9497000C9497000C949700F4
:100030000C9497000C9497000C9497000C949700E4
:100040000C9497000C9497000C9497000C949700D4
:100050000C9497000C9468010C9497000C949700F2
:100060000C9497000C9497000C9497000C949700B4
:100070000C9497000C9497000C9497000C949700A4
:100080000C9497000C9497000C9497000C94970094
:100090000C9497000C9497000C9497000C94970084
:1000A0000C9497000C9497000C9497000C94970074
:1000B0000C9497000C9497000C9497000C94970064
:1000C0000C9497000C9497000C9497000C94970054
:1000D0000C9497000C9497000C9497000C94970044
:1000E0000C9497000C9499000C94A20011241FBE4C
:1000F000CFEFD1E2DEBFCDBF00E00CBF14E0A0E047
:10010000B2E0E4E0FDE000E00BBF02C007900D921A
:10011000A83CB107D9F724E0A8ECB4E001C01D92D7
:10012000A63DB207E1F70E9415030C9480060C94DB
:1001300000009091C00095FFFCCF8093C60090E036
:1001400080E008958091C00087FFFCCF8091C600B9
:100150008D3009F48AE0082E000C990B0895109256
:10016000C50087E68093C400E1ECF0E080818861FF
:100170008083E2ECF0E080818E608083E0EDF4E04B
:100180008EE092E09383828380E092E0918380838B
:1001900080E008958F929F92AF92BF92CF92DF92AC
:1001A000EF92FF924B015C010E94F7016B017C0111
:1001B000C501B4012AE030E040E050E00E94500365
:1001C000C20ED31EE41EF51E0E94F7016C157D05BC
:1001D0008E059F0548F0FF90EF90DF90CF90BF9085
:1001E000AF909F908F90089583B7816083BF88956B
:1001F00083B78E7F83BFE8CF84E992E00E94AF038C
:100200000E94AF0073986B9A882361F12FEF33ED52
:1002100040E3215030404040E1F700C000007398B7
:100220009FEF23EC39E0915020403040E1F700C0CF
:10023000000090E0739A4FEF23EC39E041502040EA
:100240003040E1F700C0000073984FEF23EC39E035
:10025000415020403040E1F700C000009F5F89130B
:10026000E9CFD4CF739A4FEF81EE94E041508040B4
:100270009040E1F700C0000073982D98259A83EB19
:1002800092E00E94AF030E948D018AEC92E00E94EE
:10029000AF030E94430281EE92E00E94AF0383B756
:1002A000817F83BF78948CEF92E00E94AF0383E05C
:1002B00093E00E94AF032FEF33ED40E32150304035
:1002C0004040E1F700C000008CE193E00C94AF03E4
:1002D0001F920F920FB60F9211248F939F93AF939B
:1002E000BF938091CC049091CD04A091CE04B091A5
:1002F000CF040196A11DB11D8093CC049093CD0431
:10030000A093CE04B093CF04BF91AF919F918F91F2
:100310000F900FBE0F901F901895CF93DF9314BCD2
:1003200015BC16BC17BC18BCCEE6D0E0188215BAB6
:1003300084B5826084BD85B585BD85B5856085BD84
:100340008CE987BD8881826088831092CC041092EA
:10035000CD041092CE041092CF0484B51F928F93D7
:1003600085E593E09F938F930E949B0385B51F9231
:100370008F938DE693E09F938F930E949B0386B5A6
:100380001F928F9385E893E09F938F930E949B0326
:1003900087B51F928F9386E993E09F938F930E9476
:1003A0009B0388B51F928F938CEA93E09F938F9362
:1003B0000E949B0388811F928F9382EC93E09F930E
:1003C0008F930E949B0385B31F928F9386ED93E0DA
:1003D0009F938F930E949B038DB79EB74C960FB649
:1003E000F8949EBF0FBE8DBFDF91CF910895CF923D
:1003F000DF92EF92FF92F8948091C8049091C90423
:10040000A091CA04B091CB04AC01BD014F5F5F4F16
:100410006F4F7F4F4093C8045093C9046093CA0440
:100420007093CB04C090CC04D090CD04E090CE0467
:10043000F090CF04452B462B472B79F46091D404E0
:100440007091D5048BEE93E00E947203C701B60150
:10045000FF90EF90DF90CF9008958093C804909321
:10046000C904A093CA04B093CB04892B8A2B8B2B8D
:1004700069F77894EBCFE0E8F0E080818F738083B8
:100480008081808308958F929F92AF92BF92CF9286
:10049000DF92EF92FF920F931F93CF93DF9300E8C9
:1004A00010E0F8011082C1E8D0E0188284E8882EBC
:1004B000912CF4011182108298E8A92EB12CF5013B
:1004C000118210822AE8C22ED12CF60111821082EC
:1004D0003FE6E32EF12CF701108216BAF801808175
:1004E000816080838881806188830E943B02F8015B
:1004F00080811F928F938AE294E09F938F930E9452
:100500009B0388811F928F9383E494E09F938F9342
:100510000E949B03F401808191819F938F938CE5CE
:1005200094E09F938F930E949B03F50180819181BA
:100530009F938F938EE694E09F938F930E949B03EB
:10054000F601808191819F938F9385E894E09F933A
:100550008F930E949B03F70180811F928F938CE9F8
:1005600094E09F938F930E949B0386B31F928F9377
:1005700081EB94E09F938F930E949B038DB79EB76E
:100580004C960FB6F8949EBF0FBE8DBFDF91CF91F2
:100590001F910F91FF90EF90DF90CF90BF90AF90A1
:1005A0009F908F900895E0E8F0E080818F738083C2
:1005B00080818064808308950F931F93CF93DF938E
:1005C0008C01C1E0D0E08034910530F4C3E0D0E08C
:1005D000089710F0C2E0D0E0FE01EE0FFF1FEC57CD
:1005E000FD4F2081318150E040E060E079E08DE313
:1005F00090E00E945003CA01B901980150E040E028
:100600000E945003309389002093880080918100DC
:10061000887F8093810080918100C82BC0938100E6
:10062000DF91CF911F910F9108950E94FC00C0E0CF
:1006300083E2E82E83E0F82E84E0C89FF0011124C5
:10064000E05AFD4FD080D181028113811F930F9317
:10065000DF93DF92FF92EF920E949B038D2D9D2FDF
:100660000E94DC020E94D302B80190E080E00E9468
:10067000CA000E943B02CF5F0F900F900F900F9027
:100680000F900F90C930C1F686E493E00E94AF034B
:1006900068EE73E080E090E00E94CA00C0E0CCCF3A
:1006A000A1E21A2EAA1BBB1BFD010DC0AA1FBB1F76
:1006B000EE1FFF1FA217B307E407F50720F0A21BE8
:1006C000B30BE40BF50B661F771F881F991F1A9455
:1006D00069F760957095809590959B01AC01BD017F
:1006E000CF010895EF92FF920F931F93CF93DF9363
:1006F000FB01238121FF1BC0EB018C01F12CE12CBC
:10070000F80181918F01811108C0C701DF91CF915C
:100710001F910F91FF90EF900895E885F985BE0134
:100720001995892B69F3EE24EA94FE2CE9CFEE2487
:10073000EA94FE2CEACFCF93DF93CDB7DEB7AE01BC
:100740004A5F5F4FFA0161917191AF018091D204CC
:100750009091D3040E94DA03DF91CF9108950F9313
:100760001F93CF93DF93E091D204F091D3042381C0
:10077000EC0110E000E021FD08C00FEF1FEF14C0F6
:100780001995892B11F00FEF1FEF89916091D20419
:100790007091D304DB011896ED91FC918111F0CF9B
:1007A0008AE01995892B49F7C801DF91CF911F91F4
:1007B0000F9108952F923F924F925F926F927F9286
:1007C0008F929F92AF92BF92CF92DF92EF92FF9261
:1007D0000F931F93CF93DF9300D000D000D01F92D0
:1007E0001F92CDB7DEB77C013B018A01FC01178265
:1007F0001682838181FFDDC1CE0101965C01F70184
:100800009381F30193FD859193FF81913F018823AB
:1008100009F453C1853239F493FD859193FF819199
:100820003F01853229F4B70190E00E94F205E7CF3D
:10083000912C212C312CFFE1F31538F08B3211F182
:1008400090F4803209F1833229F137FC3CC020ED6D
:10085000280F2A3050F536FE20C08AE0989E200DE1
:100860001124922E06C08D3291F0803371F7689476
:1008700030F8F30193FD859193FF81913F01811140
:10088000DACF21C0689431F8689432F8F2CF6894D6
:1008900033F8EFCF689434F8ECCFEAE02E9E200DC9
:1008A0001124222E689435F8E4CF8E3229F436FCD8
:1008B00004C1689436F8DDCF8C3619F4689437F8A3
:1008C000D8CF8836B1F2982F9F7D95549330E0F0C1
:1008D0008336A1F18337C1F1833509F063C0280164
:1008E000F2E04F0E511CF801C080D180692D70E0FC
:1008F00036FC02C06FEF7FEFC6010E94DC054C01A1
:10090000689437F882010AC00C5F1F4FFFE3F98338
:1009100088248394912C6501E89437F833FE2DC028
:10092000522C8114910471F5552009F468CFB70158
:1009300080E290E00E94F2055A94F6CFF80180819F
:1009400089830E5F1F4FE4CF2801F2E04F0E511C48
:10095000F801C080D180692D70E036FC02C06FEFD5
:100960007FEFC6010E94E7054C018201D5CFB70198
:1009700080E290E00E94F2052A942814190409F0FC
:10098000B0F7CECFF60137FC859137FE81916F012C
:10099000B70190E00E94F20551105A94F1E08F1ACD
:1009A0009108BFCF843619F0893609F077C0F80175
:1009B00037FE6BC060817181828193810C5F1F4F14
:1009C000F32DFF763F2E97FF09C090958095709587
:1009D00061957F4F8F4F9F4F689437F82AE030E042
:1009E000A5010E942206C82ECA188C2C432C36FE64
:1009F0000CC0E89440F8C91440F434FE05C032FC41
:100A000003C0F32DFE7E4F2E892C44FEAAC0FE01AA
:100A1000EC0DF11D8081803309F09CC0242D297ECE
:100A2000422E842D8870582E43FCAAC040FEA4C0DC
:100A30009C2C821418F42C0C922C981844FEA6C0FE
:100A4000B70180E390E00E94F20542FE09C088E70A
:100A500090E041FE02C088E590E0B7010E94F205F7
:100A6000C91408F49FC0CA94D12C9FEFC91AD90A9F
:100A7000CA0CDB1CF60182916F01B70190E00E9465
:100A8000F205AC14BD04B1F74FCF60817181072E20
:100A9000000C880B990B0E5F1F4F92CFD32CE8945C
:100AA000D4F82AE030E08537E1F1232D297FD22EDA
:100AB0008F36A9F1F0F4883551F1F70186819781DD
:100AC0002B960FB6F894DEBF0FBECDBFDF91CF914E
:100AD0001F910F91FF90EF90DF90CF90BF90AF905C
:100AE0009F908F907F906F905F904F903F902F904E
:100AF0000895803749F0883701F7D4FE02C0689422
:100B0000D2F820E130E00DC06894D4F8F6CF34FE7E
:100B100003C0822F8660D82E20E132E002C028E098
:100B200030E0F801D7FE0FC060817181828193812E
:100B30000C5F1F4FA5010E942206C82ECA183D2C2B
:100B4000E89437F852CF6081718190E080E00E5FC9
:100B50001F4FF0CF42FC02C0839463CF83948394F1
:100B600060CF842D867809F45CCFF6CFB70180E2A0
:100B700090E00E94F20583948214C0F3512C5ECF62
:100B8000522C5818821408F459CFF8CF842D867847
:100B900009F466CF8BE241FE80E247FC8DE2B701AB
:100BA00090E05CCFB70180E390E00E94F2059A9458
:100BB00057CF8FEF9FEF84CFFC01059061507040BD
:100BC0000110D8F7809590958E0F9F1F0895FC0116
:100BD0006150704001900110D8F7809590958E0F6C
:100BE0009F1F08950F931F93CF93DF93182F092F03
:100BF000EB018B8181FD09C01FEF0FEF812F902F3B
:100C0000DF91CF911F910F91089582FF14C02E8123
:100C10003F818C819D81281739073CF4E881F98157
:100C2000CF0101969983888310838E819F810196DD
:100C30009F838E83E3CFE885F985812F1995892BD2
:100C4000A1F3DACFFA01AA27283051F1203181F13E
:100C5000E8946F936E7F6E5F7F4F8F4F9F4FAF4FC4
:100C6000B1E03ED0B4E03CD0670F781F891F9A1FD7
:100C7000A11D680F791F8A1F911DA11D6A0F711D8B
:100C8000811D911DA11D20D009F468943F912AE097
:100C9000269F11243019305D3193DEF6CF0108957F
:100CA000462F4770405D4193B3E00FD0C9F7F6CFB0
:100CB000462F4F70405D4A3318F0495D31FD405278
:100CC000419302D0A9F7EACFB4E0A695979587950E
:100CD00077956795BA95C9F70097610571050895ED
:100CE0009B01AC010A2E0694579547953795279599
:100CF000BA95C9F7620F731F841F951FA01D089531
:040D0000F894FFCF95
:100D040000000001000000000000A200000000003C
:100D14000002000000009900000000000601A60087
:100D24004A01A6008801A6000601A6004A01A60001
:100D34008801A6004A01A6008801A600EE01A600CB
:100D44004A01A6008801A600EE01A600B801A6008B
:100D54005D01A6002501A600B801A6005D01A6005C
:100D640003004D010F004D0132004D0164004D019F
:100D740096004D012C014D0190014D0158024D0189
:100D840058024D0101000100080040000001000468
:100D94000100010053657474696E672075702074D6
:100DA40068652073657269616C20706F72742E2E91
:100DB4002E0D0053657474696E6720757020546934
:100DC4006D657220302E2E2E0D0053657474696E7D
:100DD400672075702054696D657220312E2E2E0D9A
:100DE40000436F6E6669677572696E6720736C6520
:100DF4006570206D6F64652E2E2E0D005265616442
:100E0400790D0057616974696E6720666F722031CD
:100E1400207365636F6E642E2E2E0D00446F6E6515
:100E24002E0D00506C6179696E67206E6F74653A9F
:100E3400202564204475726174696F6E3A202564BC
:100E4400206D730D0A0054756E6520706C617965B0
:100E5400642E200D00436F6E74726F6C2072656790
:100E6400697374657220413A2025780A00436F6ED5
:100E740074726F6C20726567697374657220423A8C
:100E84002025780A0054696D657220636F756E744D
:100E94003A2025780A004F757470757420636F6D5D
:100EA4007061726520413A2025780A004F7574708C
:100EB400757420636F6D7061726520423A202578E5
:100EC4000A00496E74657272757074206D61736B7B
:100ED4003A2025780A00496E746572727570742020
:100EE400666C6167733A2025780A005761726E69EF
:100EF4006E673A20417474656D7074696E6720740E
:100F04006F206578697420637269746963616C2009
:100F140073656374696F6E207768656E206E6F7495
:100F240020696E206F6E652E0A00436F6E74726FB7
:100F34006C20726567697374657220413A20257864
:100F44000D0A00436F6E74726F6C2072656769736B
:100F540074657220423A2025780D0A0054696D6543
:100F64007220636F756E743A2025780D0A004F75F0
:100F74007470757420636F6D7061726520413A20DE
:100F840025780D0A004F757470757420636F6D7049
:100F940061726520423A2025780D0A00496E746515
:100FA4007272757074206D61736B3A2025780D0A26
:100FB40000496E7465727275707420666C61677333
:080FC4003A2025780D0A000017
:00000001FF
