:100000000C9476000C9497000C9497000C94970035
:100010000C9497000C9497000C9497000C94970004
:100020000C9497000C9497000C9497000C949700F4
:100030000C9497000C9497000C9497000C949700E4
:100040000C9497000C9497000C9497000C949700D4
:100050000C9497000C9463010C9497000C949700F7
:100060000C9497000C9497000C9497000C949700B4
:100070000C9497000C9497000C9497000C949700A4
:100080000C9497000C9497000C9497000C94970094
:100090000C9497000C9497000C9497000C94970084
:1000A0000C9497000C9497000C9497000C94970074
:1000B0000C9497000C9497000C9497000C94970064
:1000C0000C9497000C9497000C9497000C94970054
:1000D0000C9497000C9497000C9497000C94970044
:1000E0000C9497000C9499000C94A20011241FBE4C
:1000F000CFEFD1E2DEBFCDBF00E00CBF13E0A0E048
:10010000B2E0E0E3FBE000E00BBF02C007900D921D
:10011000A03AB107D9F723E0A0EAB3E001C01D92ED
:10012000AE3AB207E1F70E9455020C9496050C9482
:1001300000009091C00095FFFCCF8093C60090E036
:1001400080E008958091C00087FFFCCF8091C600B9
:1001500090E008951092C50087E68093C400E1EC1A
:10016000F0E0808188618083E2ECF0E080818E6045
:100170008083E8EAF3E08EE092E09383828380E07C
:1001800092E09183808380E008958F929F92AF9256
:10019000BF92CF92DF92EF92FF924B015C010E94DF
:1001A000B2016B017C01C501B4012AE030E040E0FE
:1001B00050E00E948F02C20ED31EE41EF51E0E9464
:1001C000B2016C157D058E059F0548F0FF90EF90FC
:1001D000DF90CF90BF90AF909F908F90089583B79E
:1001E000816083BF889583B78E7F83BFE8CF84E922
:1001F00092E00E94C5020E94AA0073986B9A88231D
:1002000061F12FEF33ED40E3215030404040E1F702
:1002100000C0000073989FEF23EC39E0915020401C
:100220003040E1F700C0000090E0739A4FEF23ECFC
:1002300039E0415020403040E1F700C000007398A1
:100240004FEF23EC39E0415020403040E1F700C04F
:1002500000009F5F8913E9CFD4CF739A4FEF81EEEF
:1002600094E0415080409040E1F700C00000739856
:100270002D98259A83EB92E00E94C5020E94880186
:100280008AEC92E00E94C5020E94380281EE92E060
:100290000E94C50283B7817F83BF78948CEF92E080
:1002A0000E94C50283E093E00E94C5022FEF33ED68
:1002B00040E3215030404040E1F700C000008CE1B5
:1002C00093E00C94C5021F920F920FB60F92112467
:1002D0008F939F93AF93BF938091A4039091A503B5
:1002E000A091A603B091A7030196A11DB11D809313
:1002F000A4039093A503A093A603B093A703BF9173
:10030000AF919F918F910F900FBE0F901F901895F6
:1003100014BC15BC16BC17BC18BCEEE6F0E010828D
:1003200015BA84B5826084BD85B585BD85B5856007
:1003300085BD8CE987BD80818260808316BC95B5C0
:1003400084B51F929F931F928F938EE393E09F93A8
:100350008F930E94B1020F900F900F900F900F900B
:100360000F900895CF92DF92EF92FF92F8948091D0
:10037000A0039091A103A091A203B091A303AC01AB
:10038000BD014F5F5F4F6F4F7F4F4093A00350936E
:10039000A1036093A2037093A303C090A403D09021
:1003A000A503E090A603F090A703452B462B472B0F
:1003B00079F48DE693E09F938F930E94B1020F90A2
:1003C0000F90C701B601FF90EF90DF90CF90089596
:1003D0008093A0039093A103A093A203B093A303DF
:1003E000892B8A2B8B2B69F77894EBCFE0E8F0E030
:1003F00080818F738083808180830895E0E8F0E0BE
:1004000080818F73808380818064808308950F93BF
:100410001F938C0181E090E00034110510F482E01C
:1004200090E020918100276020938100209181003D
:10043000282B20938100880F991FFC01EC57FD4F5A
:100440002081318150E040E060E079E08DE390E090
:100450000E948F02CA01B901980150E040E00E9459
:100460008F0230938900209388001F910F91089587
:10047000A0E8B0E01C92E1E8F0E010821092850064
:1004800010928400109289001092880010928B00C4
:1004900010928A0010926F0016BA8C9181608C9332
:1004A0008081806180830C94F6010E94F700C0E097
:1004B00003E213E084E0C89FF0011124E05AFD4FED
:1004C00080819181C080D180E280F380FF92EF92A1
:1004D0009F938F931F930F930E94B102C6010E94B6
:1004E00007020E94FE01B70190E080E00E94C50073
:1004F0000E94F601CF5F0F900F900F900F900F901A
:100500000F90C930B9F68FE293E00E94C50268EE01
:1005100073E080E090E00E94C500C0E0CBCFA1E294
:100520001A2EAA1BBB1BFD010DC0AA1FBB1FEE1F6D
:10053000FF1FA217B307E407F50720F0A21BB30BB8
:10054000E40BF50B661F771F881F991F1A9469F734
:1005500060957095809590959B01AC01BD01CF0190
:100560000895CF93DF93CDB7DEB7AE014A5F5F4FFB
:10057000FA0161917191AF018091AA039091AB034F
:100580000E94F002DF91CF9108950F931F93CF93B4
:10059000DF93E091AA03F091AB032381EC0110E01B
:1005A00000E021FD08C00FEF1FEF14C01995892B43
:1005B00011F00FEF1FEF89916091AA037091AB03C7
:1005C000DB011896ED91FC918111F0CF8AE019952D
:1005D000892B49F7C801DF91CF911F910F910895A1
:1005E0002F923F924F925F926F927F928F929F9243
:1005F000AF92BF92CF92DF92EF92FF920F931F9331
:10060000CF93DF9300D000D000D01F921F92CDB7C0
:10061000DEB77C013B018A01FC01178216828381CF
:1006200081FFDDC1CE0101965C01F7019381F301E9
:1006300093FD859193FF81913F01882309F453C174
:10064000853239F493FD859193FF81913F01853285
:1006500029F4B70190E00E940805E7CF912C212CE6
:10066000312CFFE1F31538F08B3211F190F4803228
:1006700009F1833229F137FC3CC020ED280F2A30E4
:1006800050F536FE20C08AE0989E200D1124922E4F
:1006900006C08D3291F0803371F7689430F8F30121
:1006A00093FD859193FF81913F018111DACF21C0A4
:1006B000689431F8689432F8F2CF689433F8EFCF49
:1006C000689434F8ECCFEAE02E9E200D1124222EFF
:1006D000689435F8E4CF8E3229F436FC04C168946E
:1006E00036F8DDCF8C3619F4689437F8D8CF8836D1
:1006F000B1F2982F9F7D95549330E0F08336A1F1AD
:100700008337C1F1833509F063C02801F2E04F0E51
:10071000511CF801C080D180692D70E036FC02C008
:100720006FEF7FEFC6010E94F2044C01689437F826
:1007300082010AC00C5F1F4FFFE3F9838824839472
:10074000912C6501E89437F833FE2DC0522C8114AA
:10075000910471F5552009F468CFB70180E290E06B
:100760000E9408055A94F6CFF801808189830E5FB4
:100770001F4FE4CF2801F2E04F0E511CF801C0805A
:10078000D180692D70E036FC02C06FEF7FEFC601AB
:100790000E94FD044C018201D5CFB70180E290E0B8
:1007A0000E9408052A942814190409F0B0F7CECF46
:1007B000F60137FC859137FE81916F01B70190E01A
:1007C0000E94080551105A94F1E08F1A9108BFCF8A
:1007D000843619F0893609F077C0F80137FE6BC00E
:1007E00060817181828193810C5F1F4FF32DFF76B1
:1007F0003F2E97FF09C090958095709561957F4F2A
:100800008F4F9F4F689437F82AE030E0A5010E948F
:100810003805C82ECA188C2C432C36FE0CC0E89420
:1008200040F8C91440F434FE05C032FC03C0F32D77
:10083000FE7E4F2E892C44FEAAC0FE01EC0DF11D58
:100840008081803309F09CC0242D297E422E842D86
:100850008870582E43FCAAC040FEA4C09C2C821471
:1008600018F42C0C922C981844FEA6C0B70180E313
:1008700090E00E94080542FE09C088E790E041FE32
:1008800002C088E590E0B7010E940805C91408F489
:100890009FC0CA94D12C9FEFC91AD90ACA0CDB1C7D
:1008A000F60182916F01B70190E00E940805AC1437
:1008B000BD04B1F74FCF60817181072E000C880B0A
:1008C000990B0E5F1F4F92CFD32CE894D4F82AE0F7
:1008D00030E08537E1F1232D297FD22E8F36A9F123
:1008E000F0F4883551F1F701868197812B960FB688
:1008F000F894DEBF0FBECDBFDF91CF911F910F9156
:10090000FF90EF90DF90CF90BF90AF909F908F902F
:100910007F906F905F904F903F902F900895803719
:1009200049F0883701F7D4FE02C06894D2F820E17C
:1009300030E00DC06894D4F8F6CF34FE03C0822FA7
:100940008660D82E20E132E002C028E030E0F801D5
:10095000D7FE0FC060817181828193810C5F1F4F30
:10096000A5010E943805C82ECA183D2CE89437F816
:1009700052CF6081718190E080E00E5F1F4FF0CF19
:1009800042FC02C0839463CF8394839460CF842D10
:10099000867809F45CCFF6CFB70180E290E00E9440
:1009A000080583948214C0F3512C5ECF522C581842
:1009B000821408F459CFF8CF842D867809F466CFD5
:1009C0008BE241FE80E247FC8DE2B70190E05CCF14
:1009D000B70180E390E00E9408059A9457CF8FEF0B
:1009E0009FEF84CFFC010590615070400110D8F753
:1009F000809590958E0F9F1F0895FC016150704067
:100A000001900110D8F7809590958E0F9F1F089543
:100A10000F931F93CF93DF93182F092FEB018B8137
:100A200081FD09C01FEF0FEF812F902FDF91CF9134
:100A30001F910F91089582FF14C02E813F818C81F8
:100A40009D81281739073CF4E881F981CF0101968F
:100A50009983888310838E819F8101969F838E83E3
:100A6000E3CFE885F985812F1995892BA1F3DACF9A
:100A7000FA01AA27283051F1203181F1E8946F93CF
:100A80006E7F6E5F7F4F8F4F9F4FAF4FB1E03ED075
:100A9000B4E03CD0670F781F891F9A1FA11D680F13
:100AA000791F8A1F911DA11D6A0F711D811D911D46
:100AB000A11D20D009F468943F912AE0269F1124BB
:100AC0003019305D3193DEF6CF010895462F47701F
:100AD000405D4193B3E00FD0C9F7F6CF462F4F707A
:100AE000405D4A3318F0495D31FD4052419302D0D8
:100AF000A9F7EACFB4E0A69597958795779567957E
:100B0000BA95C9F700976105710508959B01AC017D
:100B10000A2E06945795479537952795BA95C9F7A4
:100B2000620F731F841F951FA01D0895F894FFCFB7
:100B300000000001000000000000A2000000000012
:100B40000002000000009900000000000601A6005D
:100B50004A01A6008801A6000601A6004A01A600D7
:100B60008801A6004A01A6008801A600EE01A600A1
:100B70004A01A6008801A600EE01A600B801A60061
:100B80005D01A6002501A600B801A6005D01A60032
:100B900003004D010F004D0132004D0164004D0175
:100BA00096004D012C014D0190014D0158024D015F
:100BB00058024D010100010008004000000100043E
:100BC0000100010053657474696E672075702074AC
:100BD00068652073657269616C20706F72742E2E67
:100BE0002E0D0053657474696E672075702054690A
:100BF0006D657220302E2E2E0D0053657474696E53
:100C0000672075702054696D657220312E2E2E0D6F
:100C100000436F6E6669677572696E6720736C65F5
:100C20006570206D6F64652E2E2E0D005265616417
:100C3000790D0057616974696E6720666F722031A3
:100C4000207365636F6E642E2E2E0D00446F6E65EB
:100C50002E0D00506C6179696E673A20256400544E
:100C6000756E6520706C617965642E200D00434FB0
:100C70004E54524F4C5F52454749535445525F4181
:100C80003A2025780A434F4E54524F4C5F52454705
:100C900049535445525F423A2025780A0045786905
:100CA00074696E6720637269746963616C2073652F
:100CB0006374696F6E207468617420776520686161
:100CC0007665206E6F7420656E74657265642100B0
:00000001FF
