:100000000C9476000C9497000C9497000C94970035
:100010000C9497000C9497000C9497000C94970004
:100020000C9497000C9497000C9497000C949700F4
:100030000C9497000C9497000C9497000C949700E4
:100040000C9497000C9497000C9497000C949700D4
:100050000C9497000C946E010C9497000C949700EC
:100060000C9497000C9497000C9497000C949700B4
:100070000C9497000C9497000C9497000C949700A4
:100080000C9497000C9497000C9497000C94970094
:100090000C9497000C9497000C9497000C94970084
:1000A0000C9497000C9497000C9497000C94970074
:1000B0000C9497000C9497000C9497000C94970064
:1000C0000C9497000C9497000C9497000C94970054
:1000D0000C9497000C9497000C9497000C94970044
:1000E0000C9497000C9499000C94A20011241FBE4C
:1000F00000E00CBFCFEFD1E2DEBFCDBF14E0A0E047
:10010000B2E0E2E9FCE000E00BBF02C007900D9214
:10011000A83DB107D9F724E0A8EDB4E001C01D92D5
:10012000A63EB207E1F70E94EE020C9447060C943B
:1001300000009091C00095FFFCCF8093C60080E046
:1001400090E008958091C00087FFFCCF8091C600A9
:1001500090E008951092C50087E68093C400E1EC1A
:10016000F0E0808188618083E2EC80818E60808312
:100170008EE092E08093E2049093E30480E092E0CA
:100180008093E0049093E10480E00895CF92DF92A1
:10019000EF92FF92CF93DF9300D00F92CDB7DEB7EF
:1001A00069837A838B839C830E9491016B017C011C
:1001B00069817A818B819C812AE030E040E050E0C7
:1001C0000E942603C20ED31EE41EF51E0E9491015A
:1001D0006C157D058E059F0558F00F900F900F90C0
:1001E0000F90DF91CF91FF90EF90DF90CF90089527
:1001F00083B7816083BF889583B78E7F83BFE6CF47
:1002000084E992E00E945C030E94AA0073986B9AB2
:10021000811561F12FEF33ED40E321503040404034
:10022000E1F700C0000073989FEF23EC39E0915094
:1002300020403040E1F700C0000090E0739A4FEF9B
:1002400023EC39E0415020403040E1F700C000008D
:1002500073984FEF23EC39E0415020403040E1F7F4
:1002600000C000009F5F8917A9F2E8CF739A4FEF93
:1002700081EE94E0415080409040E1F700C00000E2
:1002800073983B9883EB92E00E945C03439889EC5F
:1002900092E00E945C0383EE92E00E945C030E9465
:1002A000E3018AEF92E00E945C0383B7817F83BF02
:1002B000789485E193E00E945C038CE193E00E94D6
:1002C0005C032FEF33ED40E3215030404040E1F735
:1002D00000C0000085E393E00C945C031F921FB6FE
:1002E0001F9211248F939F93AF93BF938091DC044F
:1002F0009091DD04A091DE04B091DF040196A11D70
:10030000B11D8093DC049093DD04A093DE04B093D0
:10031000DF04BF91AF919F918F911F901FBE1F90DF
:1003200018950F931F93CF93DF9300D00F92CDB703
:10033000DEB7F8948091D8049091D904A091DA04A2
:10034000B091DB04AC01BD014F5F5F4F6F4F7F4F3A
:100350004093D8045093D9046093DA047093DB047B
:100360000091DC041091DD042091DE043091DF0463
:1003700009831A832B833C83452B462B472BA9F4F7
:1003800082E693E09F938F930E9448030F900F9013
:1003900069817A818B819C810F900F900F900F90D3
:1003A000DF91CF911F910F9108958093D80490937E
:1003B000D904A093DA04B093DB04892B8A2B8B2B0E
:1003C00039F77894E5CFCF93DF9314BC15BC16BCF6
:1003D00017BC18BCCEE6D0E0188215BA84B582608E
:1003E00084BD85B585BD85B5856085BD8CE987BD36
:1003F00088818260888316BC84B51F928F9385E9BB
:1004000093E09F938F930E94480385B51F928F932B
:1004100085EC93E09F938F930E94480386B51F92CB
:100420008F9385EF93E09F938F930E94480387B546
:100430001F928F938EE194E09F938F930E944803C5
:1004400088B51F928F938CE494E09F938F930E94C2
:10045000480388811F928F938AE794E09F938F933C
:100460000E94480385B31F928F9386EA94E09F937E
:100470008F930E9448038DB79EB74C960FB6F894A1
:100480009EBF0FBE8DBFDF91CF910895E0E8F0E0F1
:1004900080818F738083808180830895E0E8F0E01D
:1004A00080818F7380838081806480830895CF935F
:1004B000DF93EC01E2E0F0E08034910510F0E1E040
:1004C000F0E0809181008E2B80938100EE0FFF1F62
:1004D000EC57FD4F2081318140E050E060E079E051
:1004E0008DE390E00E942603B901CA019E0140E01D
:1004F00050E00E9426033093890020938800DF910A
:10050000CF9108950F931F93CF93DF93C0E8D0E06E
:10051000188201E810E0F8011082E4E811821082EC
:10052000E8E811821082EAE811821082EFE6108278
:1005300016BA888181608883E1E880818061808348
:100540000E94460288811F928F93C3EDD4E0DF930F
:10055000CF930E944803F80180811F928F93DF930D
:10056000CF930E944803E4E8F0E0808191819F935B
:100570008F93DF93CF930E944803E8E8F0E08081F7
:1005800091819F938F93DF93CF930E944803EAE872
:10059000F0E0808191819F938F93DF93CF930E94AE
:1005A0004803EFE6F0E080811F928F93DF93CF93B3
:1005B0000E94480386B31F928F93DF93CF930E94CC
:1005C00048038DB79EB74C960FB6F8949EBF0FBEEA
:1005D0008DBFDF91CF911F910F9108950E9400016F
:1005E000C0E024E0C29FF0011124E05AFD4FF080EA
:1005F000D181028113811F930F93DF93FF928CE3CC
:1006000093E09F938F930E9448038F2D9D2F0E940C
:1006100057020E944E02B80180E090E00E94C6009E
:100620000E944602CF5F0F900F900F900F900F9097
:100630000F90C930B1F683E593E00E945C0368EE49
:1006400073E080E090E00E94C600CACFA1E21A2EBB
:10065000AA1BBB1BFD010DC0AA1FBB1FEE1FFF1F66
:10066000A217B307E407F50720F0A21BB30BE40BB6
:10067000F50B661F771F881F991F1A9469F76095FD
:100680007095809590959B01AC01BD01CF010895B7
:10069000CF93DF93CDB7DEB7AE014A5F5F4FFA016C
:1006A00061917191AF018091E2049091E3040E9405
:1006B0008803DF91CF9108950F931F93CF93DF931A
:1006C000E091E204F091E3042381EC0100E010E00A
:1006D00021FD0EC00FEF1FEFC801DF91CF911F91D9
:1006E0000F91089521961995892B11F00FEF1FEFA7
:1006F00088816091E2047091E304DB011896ED912A
:10070000FD918111EFCF8AE01995892B29F3E2CF72
:100710005F926F927F928F929F92AF92BF92CF9291
:10072000DF92EF92FF920F931F93CF93DF9300D04E
:1007300000D000D00F920F92CDB7DEB76C017B01D5
:100740008A01FC0116821782838181FFF1C13AE0A0
:10075000532EF6012381F70123FD859123FF81911B
:100760007F01811509F437C1853239F423FD959154
:1007700023FF91917F01953229F4B60190E00E9408
:10078000B105E7CF30E0912C612C712CF0E27F169F
:1007900040F59B32D9F058F49032D1F09332F1F019
:1007A0009E3291F576FC17C1689476F806C09D32AA
:1007B00091F09033C1F4689470F8F70123FD95919E
:1007C00023FF91917F019111E1CF28C0689471F8C6
:1007D000689472F8F2CF689473F8EFCF689474F865
:1007E000ECCF77FC1BC080ED890F8A30C8F676FE0F
:1007F00005C0959C800D1124982EDFCF659C800D3F
:100800001124682E7F2AD9CF9C3619F4689477F882
:10081000D4CF9C3409F445C0983679F2892F8F7D66
:100820008554833008F43FC0933609F461C0933790
:1008300009F46BC0933509F477C0943619F09936F2
:1008400009F0A4C0F80177FE9AC06191719181917D
:1008500091918F01272D2F76822E97FF04C00E9441
:100860003F06689487F82AE030E05E014FEFA41A53
:10087000B40AA5010E94E105782E7A1886FEE1C02F
:10088000882D8E7F791408F0DBC084FE2FC182FC96
:1008900023C12EEE8222B92C882D867809F4DDC082
:1008A00020C131E08ACF311501F1085F1F4F8FE37E
:1008B000898321E0822E912C5E012FEFA21AB20AC9
:1008C000E89477F873FC03C086149104F0F1811466
:1008D000910409F041C0611409F43BCFB60180E2F4
:1008E00090E00E94B1056A94F6CF0C5F1F4FDFCFF6
:1008F000F801808189830E5F1F4F91E0892E912C32
:100900005E01FFEFAF1ABF0ADBCFF801A190B190F3
:100910008F01692D70E076FC02C06FEF7FEFC5019B
:100920000E94A6054C01CCCFF801A190B1908F0197
:10093000692D70E076FC02C06FEF7FEFC5010E9469
:100940009B054C01689477F8BDCFB60180E290E03A
:100950000E94B1056A94B8CFF50177FC859177FEC6
:1009600081915F01B60190E00E94B10581E06110C4
:1009700001C080E0681AF1E08F1A9108A8CF619158
:100980007191872F880F880B982F63CF9537C9F403
:10099000872CE89484F82AE030E0F80187FE4BC009
:1009A00061917191819191918F015E01FFEFAF1A79
:1009B000BF0AA5010E94E105782E7A18E89487F80D
:1009C0005DCF872D897F882E903729F1E8F49835FF
:1009D00039F19F3669F1F601868197812B960FB622
:1009E000F894DEBF0FBECDBFDF91CF911F910F9165
:1009F000FF90EF90DF90CF90BF90AF909F908F903F
:100A00007F906F905F900895983729F774FC05C028
:100A100020E130E0C2CF689484F8689482F8F8CF7F
:100A200074FE03C0E72DE6608E2E20E132E0B5CFE4
:100A300028E030E0B2CF6191719180E090E0B4CFD6
:100A4000882EB72C84FE28CFFE01E70DF11D808192
:100A5000803309F044C049EE842283FC0EC080FE3E
:100A600051C0972CB61418F4960C9B18B62C862DF2
:100A70008B196B1408F480E0B80EB61408F044C06B
:100A80006B1884FE43C0B60180E390E00E94B1057C
:100A900082FE09C088E590E081FC02C088E790E012
:100AA000B6010E94B1057914E0F15E018FEFA81A3A
:100AB000B80A7A9482E0882E912C8C0E9D1E870CA9
:100AC000911CF40182914F01B60190E00E94B105A2
:100AD0008A149B04B1F7FFCEB92C882EB5CF82FCC7
:100AE00002C0B394BACFB394B394B7CFB92C882EC5
:100AF000D3CEB60180E290E00E94B105A394A61483
:100B0000C0F3B5CFAB2CFBCF612CBBCF882D867843
:100B100051F280E281FC8BE287FC8DE2B60190E02D
:100B2000C0CFB60180E390E00E94B1059A94BBCF9C
:100B30008FEF9FEF53CFFC01059061507040011083
:100B4000D8F7809590958E0F9F1F0895FC016150F6
:100B5000704001900110D8F7809590958E0F9F1FDF
:100B600008950F931F93CF93DF93182F092FEB0155
:100B70008B8181FD09C00FEF1FEF812F902FDF9137
:100B8000CF911F910F91089582FF14C02E813F8154
:100B90008C819D81281739073CF4E881F981CF01C8
:100BA00001968883998310838E819F8101968E831D
:100BB0009F83E3CFE885F985812F1995892BA1F3D0
:100BC000DACFFA01AA27283051F1203181F1E894D7
:100BD0006F936E7F6E5F7F4F8F4F9F4FAF4FB1E030
:100BE0003ED0B4E03CD0670F781F891F9A1FA11D2B
:100BF000680F791F8A1F911DA11D6A0F711D811D2C
:100C0000911DA11D20D009F468943F912AE0269FF0
:100C100011243019305D3193DEF6CF010895462F4F
:100C20004770405D4193B3E00FD0C9F7F6CF462F30
:100C30004F70405D4A3318F0495D31FD4052419399
:100C400002D0A9F7EACFB4E0A69597958795779556
:100C50006795BA95C9F700976105710508959B01DD
:100C6000AC010A2E06945795479537952795BA9566
:100C7000C9F7620F731F841F951FA01D08959095DB
:100C80008095709561957F4F8F4F9F4F0895F89491
:020C9000FFCF94
:100C920000000001000000000000A20000000000AF
:100CA2000002000000009900000000000601A600FA
:100CB2004A01A6008801A6000601A6004A01A60074
:100CC2008801A6004A01A6008801A600EE01A6003E
:100CD2004A01A6008801A600EE01A600B801A600FE
:100CE2005D01A6002501A600B801A6005D01A600CF
:100CF20003004D010F004D0132004D0164004D0112
:100D020096004D012C014D0190014D0158024D01FB
:100D120058024D01010001000800400000010004DA
:100D22000100010053657474696E67207570207448
:100D320068652073657269616C20706F72742E2E03
:100D42002E0D0050696E2041332073657420746F3C
:100D520020696E7075742E0D0050696E204133202B
:100D620070756C6C2D75702064697361626C65645A
:100D72002E0D0053657474696E6720757020546976
:100D82006D657220302E2E2E0D00436F6E666967E0
:100D92007572696E6720736C656570206D6F64652E
:100DA2002E2E2E0D0052656164790D005761697413
:100DB200696E6720666F722031207365636F6E649F
:100DC2002E2E2E0D00446F6E652E0D00506C617933
:100DD200696E673A202564687A20666F72202564FE
:100DE2006D730054756E6520706C617965642E2098
:100DF2000D0045786974696E67206372697469636E
:100E0200616C2073656374696F6E2074686174200D
:100E120077652068617665206E6F7420656E7465F3
:100E2200726564210054696D657220636F6E666934
:100E32006775726174696F6E3A202020434F4E5479
:100E4200524F4C5F52454749535445525F413A20F5
:100E520025780D0A0054696D657220636F6E6669AC
:100E62006775726174696F6E3A202020434F4E5449
:100E7200524F4C5F52454749535445525F423A20C4
:100E820025780D0A0054696D657220636F6E66697C
:100E92006775726174696F6E3A20202054494D451E
:100EA200525F434F554E543A2025780D0A0054693B
:100EB2006D657220636F6E66696775726174696FC2
:100EC2006E3A2020204F55545055545F434F4D5099
:100ED2004152455F413A2025780D0A0054696D65FB
:100EE2007220636F6E66696775726174696F6E3ABC
:100EF2002020204F55545055545F434F4D5041527E
:100F0200455F423A2025780D0A0054696D657220CA
:100F1200636F6E66696775726174696F6E3A2020DD
:100F220020494E544552525550545F4D41534B3A0D
:100F32002025780D0A0054696D657220636F6E6614
:100F4200696775726174696F6E3A202020494E5448
:100F52004552525550545F464C4147533A202578EA
:080F62000D0A0025780A0000C9
:00000001FF
