:100000000C9476000C9497000C9497000C94970035
:100010000C9497000C9497000C9497000C94970004
:100020000C9497000C9497000C9497000C949700F4
:100030000C9497000C9497000C9497000C949700E4
:100040000C9497000C9497000C9497000C949700D4
:100050000C9497000C9497000C9497000C949700C4
:100060000C9497000C9497000C9497000C949700B4
:100070000C9497000C9497000C9497000C949700A4
:100080000C9497000C9497000C9497000C94970094
:100090000C9497000C9497000C9497000C94970084
:1000A0000C9497000C9497000C9497000C94970074
:1000B0000C9497000C9497000C9497000C94970064
:1000C0000C9497000C9497000C9497000C94970054
:1000D0000C9497000C9497000C9497000C94970044
:1000E0000C9497000C9499000C94A00011241FBE4E
:1000F000CFEFD1E2DEBFCDBF00E00CBF12E0A0E049
:10010000B2E0E0E6F7E000E00BBF02C007900D921E
:10011000A634B107D9F722E0A6E4B2E001C01D92EF
:10012000AC34B207E1F70E94A7000C94AE030C9424
:1001300000009091C00095FFFCCF8093C600089509
:100140008091C00087FFFCCF8091C6000895CF93B7
:10015000DF93CDB7DEB7A8970FB6F894DEBF0FBE1A
:10016000CDBF1092C50087E68093C4008091C10086
:1001700088618093C1008091C2008E608093C2002C
:100180008EE092E0909349028093480280E092E0F2
:10019000909347028093460284B1876084B98CB5FE
:1001A00081658CBD84E1ECE1F2E0DE0155960190C1
:1001B0000D928A95E1F72898FE013196DE01559659
:1001C00085E19F01815041F4289A3F932F930E942B
:1001D000F4000F900F90EFCF9D919EBD0DB407FEE0
:1001E000FDCF9EB59193EECFCF93DF93CDB7DEB722
:1001F000AE014A5F5F4FFA0161917191AF01809149
:100200004802909149020E940801DF91CF91089520
:100210002F923F924F925F926F927F928F929F9216
:10022000AF92BF92CF92DF92EF92FF920F931F9304
:10023000CF93DF9300D000D000D01F921F92CDB794
:10024000DEB77C013B018A01FC01178216828381A3
:1002500081FFDDC1CE0101965C01F7019381F301BD
:1002600093FD859193FF81913F01882309F453C148
:10027000853239F493FD859193FF81913F01853259
:1002800029F4B70190E00E942003E7CF912C212CA4
:10029000312CFFE1F31538F08B3211F190F48032FC
:1002A00009F1833229F137FC3CC020ED280F2A30B8
:1002B00050F536FE20C08AE0989E200D1124922E23
:1002C00006C08D3291F0803371F7689430F8F301F5
:1002D00093FD859193FF81913F018111DACF21C078
:1002E000689431F8689432F8F2CF689433F8EFCF1D
:1002F000689434F8ECCFEAE02E9E200D1124222ED3
:10030000689435F8E4CF8E3229F436FC04C1689441
:1003100036F8DDCF8C3619F4689437F8D8CF8836A4
:10032000B1F2982F9F7D95549330E0F08336A1F180
:100330008337C1F1833509F063C02801F2E04F0E25
:10034000511CF801C080D180692D70E036FC02C0DC
:100350006FEF7FEFC6010E940A034C01689437F8E3
:1003600082010AC00C5F1F4FFFE3F9838824839446
:10037000912C6501E89437F833FE2DC0522C81147E
:10038000910471F5552009F468CFB70180E290E03F
:100390000E9420035A94F6CFF801808189830E5F72
:1003A0001F4FE4CF2801F2E04F0E511CF801C0802E
:1003B000D180692D70E036FC02C06FEF7FEFC6017F
:1003C0000E9415034C018201D5CFB70180E290E075
:1003D0000E9420032A942814190409F0B0F7CECF04
:1003E000F60137FC859137FE81916F01B70190E0EE
:1003F0000E94200351105A94F1E08F1A9108BFCF48
:10040000843619F0893609F077C0F80137FE6BC0E1
:1004100060817181828193810C5F1F4FF32DFF7684
:100420003F2E97FF09C090958095709561957F4FFD
:100430008F4F9F4F689437F82AE030E0A5010E9463
:100440005003C82ECA188C2C432C36FE0CC0E894DE
:1004500040F8C91440F434FE05C032FC03C0F32D4B
:10046000FE7E4F2E892C44FEAAC0FE01EC0DF11D2C
:100470008081803309F09CC0242D297E422E842D5A
:100480008870582E43FCAAC040FEA4C09C2C821445
:1004900018F42C0C922C981844FEA6C0B70180E3E7
:1004A00090E00E94200342FE09C088E790E041FEF0
:1004B00002C088E590E0B7010E942003C91408F447
:1004C0009FC0CA94D12C9FEFC91AD90ACA0CDB1C51
:1004D000F60182916F01B70190E00E942003AC14F5
:1004E000BD04B1F74FCF60817181072E000C880BDE
:1004F000990B0E5F1F4F92CFD32CE894D4F82AE0CB
:1005000030E08537E1F1232D297FD22E8F36A9F1F6
:10051000F0F4883551F1F701868197812B960FB65B
:10052000F894DEBF0FBECDBFDF91CF911F910F9129
:10053000FF90EF90DF90CF90BF90AF909F908F9003
:100540007F906F905F904F903F902F9008958037ED
:1005500049F0883701F7D4FE02C06894D2F820E150
:1005600030E00DC06894D4F8F6CF34FE03C0822F7B
:100570008660D82E20E132E002C028E030E0F801A9
:10058000D7FE0FC060817181828193810C5F1F4F04
:10059000A5010E945003C82ECA183D2CE89437F8D4
:1005A00052CF6081718190E080E00E5F1F4FF0CFED
:1005B00042FC02C0839463CF8394839460CF842DE4
:1005C000867809F45CCFF6CFB70180E290E00E9414
:1005D000200383948214C0F3512C5ECF522C581800
:1005E000821408F459CFF8CF842D867809F466CFA9
:1005F0008BE241FE80E247FC8DE2B70190E05CCFE8
:10060000B70180E390E00E9420039A9457CF8FEFC8
:100610009FEF84CFFC010590615070400110D8F726
:10062000809590958E0F9F1F0895FC01615070403A
:1006300001900110D8F7809590958E0F9F1F089517
:100640000F931F93CF93DF93182F092FEB018B810B
:1006500081FD09C01FEF0FEF812F902FDF91CF9108
:100660001F910F91089582FF14C02E813F818C81CC
:100670009D81281739073CF4E881F981CF01019663
:100680009983888310838E819F8101969F838E83B7
:10069000E3CFE885F985812F1995892BA1F3DACF6E
:1006A000FA01AA27283051F1203181F1E8946F93A3
:1006B0006E7F6E5F7F4F8F4F9F4FAF4FB1E03ED049
:1006C000B4E03CD0670F781F891F9A1FA11D680FE7
:1006D000791F8A1F911DA11D6A0F711D811D911D1A
:1006E000A11D20D009F468943F912AE0269F11248F
:1006F0003019305D3193DEF6CF010895462F4770F3
:10070000405D4193B3E00FD0C9F7F6CF462F4F704D
:10071000405D4A3318F0495D31FD4052419302D0AB
:10072000A9F7EACFB4E0A695979587957795679551
:10073000BA95C9F700976105710508959B01AC0151
:100740000A2E06945795479537952795BA95C9F778
:10075000620F731F841F951FA01D0895F894FFCF8B
:1007600000000001000000000000A00000000000E8
:10077000000200000000990000000000202E2E2E34
:100780007772697465207768617420746F20747261
:10079000616E7366657220746F20736C6176652E6E
:0607A0002E2E200A0D00C0
:00000001FF
