:1000000071C000008EC000008CC000008AC00000DB
:1000100088C0000086C0000084C0000082C00000CC
:1000200080C000007EC000007CC000007AC00000DC
:1000300078C0000076C0000074C0000072C00000EC
:1000400070C000006EC000006CC000006AC00000FC
:1000500068C0000066C0000064C0000062C000000C
:1000600060C000005EC000005CC000005AC000001C
:1000700058C0000056C0000054C0000052C000002C
:1000800050C000004EC000004CC000004AC000003C
:1000900048C0000046C0000044C0000042C000004C
:1000A00040C000003EC000003CC000003AC000005C
:1000B00038C0000036C0000034C0000032C000006C
:1000C00030C000002EC000002CC000002AC000007C
:1000D00028C0000026C0000024C0000022C000008C
:1000E00020C0000011241FBECFEFD1E2DEBFCDBF84
:1000F00000E00CBF12E0A0E0B2E0ECEAF2E000E0C9
:100100000BBF02C007900D92A434B107D9F722E0CB
:10011000A4E4B2E001C01D92AA34B207E1F705D011
:10012000C3C06ECF8111FFCF0895CF93DF9300D06E
:100130001F92CDB7DEB779D0F5DF198281E08A83CF
:1001400082E08B8383E08C838CE192E07DD085B16B
:100150008E7F85B984B1816084B985B18D7F85B981
:1001600084B1826084B985B18B7F85B984B18460A4
:1001700084B985B1877F85B984B1886084B98DE2FF
:1001800092E062D020E030E002C020E030E065B1D3
:10019000E1E0F0E0EC0FFD1FE20FF31F81E090E0E3
:1001A000AC01008002C0440F551F0A94E2F7462BB1
:1001B00045B94FEF53ED60E3415050406040E1F7E7
:1001C00000C0000045B1008002C0880F991F0A944A
:1001D000E2F78095842385B92F5F3F4F24303105A6
:1001E000A4F6D5CF9093C5008093C400E1ECF0E075
:1001F000808188618083E2ECF0E080818E60808382
:1002000008959091C00095FFFCCF8093C60080E0D8
:1002100090E008958091C0008823E4F78091C600A3
:100220008D3009F48AE090E0089587E690E0DADF07
:10023000E4E4F2E08EE092E09383828380E092E057
:100240009183808380E008950F931F93CF93DF9372
:10025000E0914602F0914702238121FF1BC08C01EF
:10026000D0E0C0E0F80181918F0160914602709169
:100270004702DB011896ED91FC911997882331F024
:100280001995892B79F3DFEFCFEFECCF8AE0199541
:10029000892B19F08FEF9FEF02C08D2F9C2FDF91DC
:0C02A000CF911F910F910895F894FFCFAB
:1002AC00000000010000000000000A010000000036
:1002BC00000200000000010100000000436F6E66A8
:1002CC0069677572696E6720494F2E0D0020436F68
:1002DC006E66696775726174696F6E20646F6E65A6
:0402EC002E0D0000D3
:00000001FF
