:100000000C94B1000C94C5000C94C3000C94C30074
:100010000C94C3000C94C3000C94C3000C94C30054
:100020000C94C3000C94C3000C94C3000C94C30044
:100030000C94C3000C94C3000C94C3000C94C30034
:100040000C94C3000C94C3000C94C3000C94C30024
:100050000C94C3000C94C3000C94C3000C94C30014
:100060000C94C3000C94C30000407A10F35A00A013
:10007000724E18090010A5D4E80000E87648170071
:1000800000E40B54020000CA9A3B000000E1F505B1
:10009000000080969800000040420F000000A086FB
:1000A00001000000102700000000E803000000002D
:1000B0006400000000000A000000000001000000D1
:1000C00000002C76D888DC674F0823DFC1DFAE59EB
:1000D000E1B1B796E5E3E453C63AE651997696E87E
:1000E000E6C28426EB898C9B62ED407C6FFCEFBC02
:1000F0009C9F40F2BAA56FA5F490055A2AF75C932D
:100100006B6CF9676DC11BFCE0E40D47FEF520E662
:10011000B500D0ED902E0300943577050080841E45
:10012000080000204E0A000000C80C333333330FA0
:10013000986E12831141EF8D2114893BE65516CF3D
:10014000FEE6DB18D1844B381BF77C1D901DA4BB49
:10015000E424203284725E228100C9F124ECA1E5FE
:100160003D2711241FBECFEFD8E0DEBFCDBF21E079
:10017000A0E0B1E001C01D92A830B207E1F70E94F3
:10018000F8010C941D060C9400001F920F920FB6FC
:100190000F9211242F933F934F935F936F937F930D
:1001A0008F939F93AF93BF93EF93FF936091000161
:1001B00070910101809102019091030120E030E0F3
:1001C00040E85FE30E9462026093000170930101C6
:1001D0008093020190930301FF91EF91BF91AF9142
:1001E0009F918F917F916F915F914F913F912F914F
:1001F0000F900FBE0F901F9018952B9A85E08A954F
:10020000F1F700002B980895CF93C82F662341F192
:10021000299A2A98539A549A559A569A5E985D98B4
:100220005C985B98C7FD5E9AC6FD5D9AC5FD5C9AB9
:10023000C4FD5B9A0E94FD005E985D985C985B9897
:10024000C3FD5E9AC2FD5D9AC1FD5C9AC0FD5B9ADA
:100250000E94FD005B9A5C9A5D9A5E9ACF91089528
:100260002998D7CF29982A9A5398549855985698F0
:100270002B9A85E08A95F1F700004B9B1BC080E12B
:100280004C9980624D9980644E9980682B9895E0D6
:100290009A95F1F700002B9A95E09A95F1F70000F6
:1002A0004B9981604C9982604D9984604E99886029
:1002B0002B98089580E0E4CF0E94320187FDFCCFA7
:1002C00085E18A95F1F700000C943201CF93C82F95
:1002D0000E945C0160E08C2FCF910C940401CF93BD
:1002E000C82F0E945C0161E08C2FCF910C94040117
:1002F000611103C080580C9466018054FCCF0E94A9
:100300005C0190E0089581E00C94660182E00C9419
:100310006601CF93C82F0E945C01CA3049F4803433
:1003200028F080E08058CF910C94660180E4FACFE9
:1003300061E08C2FCF910C940401CF93DF93EC01FB
:100340008991811103C0DF91CF9108950E948901A5
:10035000F7CFCF93DF93EC01FE01849121968111B9
:1003600003C0DF91CF9108950E948901F5CFCF930B
:10037000C82F219A229A239A539A549A559A569A98
:100380008FEF99EF0197F1F700C000005C9A5B9A3C
:100390000E94FD008FE19EE40197F1F700C000008C
:1003A0000E94FD008FEF90E00197F1F700C0000080
:1003B0000E94FD008FEF90E00197F1F700C0000070
:1003C0005B980E94FD008FEF90E00197F1F700C06D
:1003D000000088E20E94660188E00E9466010E9497
:1003E000830186E00E9466018C2FCF910C946601F8
:1003F000CF93DF93CDB7DEB7A0970FB6F894DEBFEB
:100400000FBECDBF8AB18B778AB9809169008260B7
:1004100080936900E89A83B7846083BF78948CE006
:100420000E94B7010E948301609100017091010157
:1004300080910201909103018E010F5E1F4F20E019
:1004400043E00E9491030E948301C8010E949D0124
:100450004F9B08C083B7816083BF889583B78E7F29
:1004600083BFE2CF20E030E040E85FE36091040129
:100470007091050180910601909107010E9462022E
:100480006093040170930501809306019093070126
:1004900020E030E04AE754E40E94CE0220E030E061
:1004A00048EC52E40E94CE028E010F5F1F4F22E003
:1004B00043E00E9491030E948301C8010E949D01B4
:1004C000B3CF5058BB27AA270E9479020C94570338
:1004D0000E94490338F00E94500320F039F49F3FF6
:1004E00019F426F40C9446030EF4E095E7FB0C9403
:1004F0004003E92F0E94680358F3BA176207730795
:100500008407950720F079F4A6F50C948A030EF47D
:10051000E0950B2EBA2FA02D0B01B90190010C0113
:10052000CA01A0011124FF27591B99F0593F50F42B
:10053000503E68F11A16F040A22F232F342F442783
:10054000585FF3CF469537952795A795F04053957B
:10055000C9F77EF41F16BA0B620B730B840BBAF04B
:100560009150A1F0FF0FBB1F661F771F881FC2F7B6
:100570000EC0BA0F621F731F841F48F487957795CA
:100580006795B795F7959E3F08F0B0CF9395880F84
:1005900008F09927EE0F9795879508950E94E2023B
:1005A0000C9457030E94500358F00E94490340F0F6
:1005B00029F45F3F29F00C94400351110C948B03F4
:1005C0000C9446030E94680368F39923B1F3552302
:1005D00091F3951B550BBB27AA2762177307840756
:1005E00038F09F5F5F4F220F331F441FAA1FA9F3EC
:1005F00035D00E2E3AF0E0E832D091505040E695DA
:10060000001CCAF72BD0FE2F29D0660F771F881F3A
:10061000BB1F261737074807AB07B0E809F0BB0B2D
:10062000802DBF01FF2793585F4F3AF09E3F510541
:1006300078F00C9440030C948B035F3FE4F3983EF6
:10064000D4F3869577956795B795F7959F5FC9F72A
:10065000880F911D9695879597F90895E1E0660FAB
:10066000771F881FBB1F621773078407BA0720F024
:10067000621B730B840BBA0BEE1F88F7E09508958D
:1006800097F99F6780E870E060E008959FEF80EC45
:10069000089500240A9416161706180609060895E8
:1006A00000240A9412161306140605060895092E4E
:1006B0000394000C11F4882352F0BB0F40F4BF2BBD
:1006C00011F460FF04C06F5F7F4F8F4F9F4F0895FD
:1006D00057FD9058440F551F59F05F3F71F04795F3
:1006E000880F97FB991F61F09F3F79F087950895D8
:1006F000121613061406551FF2CF4695F1DF08C0F7
:10070000161617061806991FF1CF86957105610513
:1007100008940895E894BB2766277727CB0197F9BB
:100720000895EF920F931F93CF93DF93E80134E086
:1007300047FD34E1042E000C550B57FF03C05195C3
:1007400041955109E32E022F242FAE010E94AF03E1
:10075000CE01DF91CF911F910F91EF900895A9E005
:10076000B0E0E5EBF3E00C94EC056A01F22EB02E5C
:10077000102FFBE3AF2EA01608F41BE31F5F012F21
:1007800027E0AE014F5F5F4F0E940E05BC018981DB
:10079000982F9970913009F43FC09BE2E1FC04C0AE
:1007A0009E2D9170E0FC3AC05E2D5071E82FE870EC
:1007B00083FF46C084E0911101C083E0EF2DE81B68
:1007C0008F1508F0E0E0D6018E2F20E2552351F17D
:1007D000992329F0D6019C93C60101966C019601DC
:1007E0002D5F3F4FE2FE24C08EE4D6018C9391E44E
:1007F00011969C93119712968C93D9018E2F90E2AB
:1008000081111BC0E20FF32FF11D10828EEF9FEFBD
:100810002996ECE00C9408069DE2C6CF90E2C4CF86
:100820002D9381508111FCCFCE0ED11CE0E0D0CFB2
:100830008EE6D6018C9391E6DBCF9D938150E0CF7D
:10084000482F447082FF3DC084E0911101C083E0D5
:100850008F1510F4EF2DE81BD6018E2F20E25523C3
:1008600009F1992329F0D6019C93C60101966C01E8
:1008700096012D5F3F4FE2FE1BC089E4D6018C93A9
:100880008EE411968C93119786E412968C93D9017D
:100890008E2F90E2882309F4B5CF9D938150FACF33
:1008A0002D9381508111FCCFCE0ED11CE0E0D9CF29
:1008B00089E6D6018C938EE611968C93119786E685
:1008C000E4CF9B0177FF02C030E020E0A1E0B0E080
:1008D000911102C0B0E0A0E0F9013196AE0FBF1F48
:1008E0008B2C912CBB2009F461C05401EFEFAE1AA0
:1008F000BE0AAA0DBB1DFA161B0619F014F04F2DE7
:100900004A1B511188C0E3FC59C07601A42FB0E204
:10091000A1114FC0C40ED11C992309F45BC040E063
:10092000D6011196F60190836D01552309F448C054
:10093000012F060F9A81582F507184FF03C0913305
:1009400009F4015010160CF047C0093008F008E017
:10095000EEE2FE2E5B01A01AB1088501919481940C
:1009600091082F3F320729F4D601FC92F601319607
:100970006F016217730794F1021713077CF5DB010F
:10098000A21BB30BAA24A394B12CAC0EBD1EAA0DBE
:10099000BB1D11968C9121503109D6011196281555
:1009A0003905F4F0F60180836D01DBCFB12CA12C69
:1009B000A0CFF701B1937F01A150AACF9111B0CF81
:1009C000D601942F50E302C05D9391509111FCCF5A
:1009D000C40ED11C40E0ACCF01E0BACF80E3DBCF46
:1009E0006217730731F4963388F4953311F4552365
:1009F00069F0F6018083FD01842F90E2811108C027
:100A0000A40FB11D1C9290E080E002CF81E3F1CFF2
:100A100091938150F3CF911183CF8ACF283008F082
:100A200027E03327DA01990F311D87FD9160009689
:100A30006105710539F432602E5F3D9330E32A95EC
:100A4000E1F708959F3F30F080387105610509F0A6
:100A50003C5F3C5F3D93913008F08068911DDF93CF
:100A6000CF931F930F93FF92EF92192F987F969534
:100A7000E92F96959695E90FFF27EE53FF4F99279B
:100A80003327EE24FF24A701E7010590089407947B
:100A900028F4360FE71EF81E491F511D660F771FF9
:100AA000881F991F0694A1F70590079428F4E70E74
:100AB000F81E491F561FC11D770F881F991F661FFB
:100AC0000694A1F70590079428F4F80E491F561FC5
:100AD000C71FD11D880F991F661F771F0694A1F7A6
:100AE0000590079420F4490F561FC71FD81F990F70
:100AF000661F771F881F0694A9F7849110951770B9
:100B000041F0D695C79557954795F794E7941A9570
:100B1000C1F7E8E6F0E0689415901591359165917C
:100B2000959105907FE27395E118F10A430B560BFE
:100B3000C90BD009C0F7E10CF11E431F561FC91F96
:100B4000D01D7EF4703311F48A95E6CFE8940150FD
:100B500030F0080F0AF40027021708F4202F23951D
:100B6000022F7A3328F079E37D932A95E9F710C0B4
:100B70007D932A9589F606949795679537951795ED
:100B80001794E118F10A430B560BC90BD00998F0E2
:100B900023957E9173957A3308F070E37C9320134C
:100BA000B8F77E9170617D9330F0839571E37D930A
:100BB00070E32A95E1F71124EF90FF900F911F91B8
:100BC000CF91DF91992787FD909508952F923F92BD
:100BD0004F925F926F927F928F929F92AF92BF924D
:100BE000CF92DF92EF92FF920F931F93CF93DF93F9
:100BF000CDB7DEB7CA1BDB0B0FB6F894DEBF0FBE56
:100C0000CDBF09942A88398848885F846E847D84A2
:100C10008C849B84AA84B984C884DF80EE80FD80A4
:100C20000C811B81AA81B981CE0FD11D0FB6F8941A
:0E0C3000DEBF0FBECDBFED010895F894FFCFDB
:00000001FF
