:1000000071C000008EC000008CC000008AC00000DB
:1000100088C0000086C0000084C0000082C00000CC
:1000200080C000007EC000007CC000007AC00000DC
:1000300078C0000076C0000074C0000072C00000EC
:1000400070C000006EC000006CC000006AC00000FC
:1000500068C0000066C0000064C0000062C000000C
:1000600060C000005EC000005CC000005AC000001C
:1000700058C0000056C0000054C0000052C000002C
:1000800050C000004EC000004CC000004AC000003C
:1000900048C0000046C0000044C0000042C000004C
:1000A00040C000003EC000003CC000003AC000005C
:1000B00038C0000036C0000034C0000032C000006C
:1000C00030C000002EC000002CC000002AC000007C
:1000D00028C0000026C0000024C0000022C000008C
:1000E00020C0000011241FBECFEFD1E2DEBFCDBF84
:1000F00000E00CBF13E0A0E0B2E0EEE4FDE000E0C1
:100100000BBF02C007900D92A435B107D9F723E0C9
:10011000A4E5B3E001C01D92AA3BB207E1F7C1D14B
:1001200014C66ECFDC011296ED91FC9113974081BD
:1001300021E030E0C90114960C9002C0880F991F8D
:100140000A94E2F7842B80830895FC01A281B38195
:100150009C9121E030E0A901048002C0440F551FAA
:100160000A94E2F7842F809589238C93A081B18132
:100170008C91048002C0220F331F0A94E2F7282BCF
:100180002C930895DC01ED91FC911197408121E0C1
:1001900030E0C90114960C9002C0880F991F0A9490
:1001A000E2F7842B80830895DC01ED91FC91119797
:1001B000408121E030E0B90114960C9002C0660F36
:1001C000771F0A94E2F7CB018095842380830895FA
:1001D0008111FFCF0895CF93DF93C82F082E000C15
:1001E000DD0BDF938F938CE192E09F938F93BDD2D1
:1001F000CE010197880F991F880F991F880F991FAB
:100200008C5A9C4FBFDF0F900F900F900F90DF9193
:10021000CF910895CF93FC01A681B7819C91248151
:100220003581892F90E0022E02C0959587950A941A
:10023000E2F7C1E080FFC0E01F92CF933F932F937E
:1002400087E392E09F938F9390D20F900F900F903F
:100250000F900F900F908C2FCF910895CF93C1E006
:1002600011C08C2F0C2E000C990B0197880F991F31
:10027000880F991F880F991F84589C4FCBDF8823C4
:1002800029F0CF5FC6306CF380E001C08C2FCF9196
:100290000895CF93DF93C82F082E000CDD0BDF935A
:1002A0008F938EE592E09F938F935FD2CE0101975B
:1002B000880F991F880F991F880F991F8C5A9C4F80
:1002C00073DF0F900F900F900F90DF91CF910895F3
:1002D000EF92FF920F931F93CF93C82F7B018A0158
:1002E0001F928F938AE792E09F938F933ED20F9055
:1002F0000F900F900F90C13071F018F0C230D1F014
:1003000029C08FE39CE90197F1F700C00000A6DF48
:10031000F70180831FC0FFEF2BE782E9F1502040F7
:100320008040E1F700C00000F80180818F5F80838A
:1003300052DF10C0F8018081ACDFF801808181506C
:100340008083FFEF2BE782E9F15020408040E1F706
:1003500000C00000CF911F910F91FF90EF90089582
:100360000F931F93CF93C82F8A011F928F9386E913
:1003700092E09F938F93F9D10F900F900F900F9071
:10038000C130A8F0C33018F0C43029F010C08CEA96
:1003900093E00ADF0CC02FEF8BE792E921508040F9
:1003A0009040E1F700C00000F801808172DFCF913A
:1003B0001F910F910895EF92FF920F931F93CF9388
:1003C000C82F7B018A011F928F938EEA92E09F9340
:1003D0008F93CBD10F900F900F900F90C23069F098
:1003E00018F4C13031F047C0C33059F0C530B1F016
:1003F00042C08CEA93E0C6DE3EC08CEA93E0C2DEE7
:100400003AC084EA93E0BEDE2FEF8BE792E92150F9
:1004100080409040E1F700C000002DC0F8018081CD
:10042000181614F081E08083F8018081863014F082
:1004300085E08083F8018081F7018083C0E019C0E6
:100440008CEA93E09FDEFFEF21EE84E0F150204044
:100450008040E1F700C000008CEA93E0A5DE9FEF4A
:10046000E1EEF4E09150E040F040E1F700C0000020
:10047000CF5FCF302CF3CF911F910F91FF90EF9072
:100480000895882341F09FEF980F953030F4861738
:1004900031F084E0089580E0089585E0089580E0DB
:1004A0000895CF93DF9300D0CDB7DEB74FD190DE64
:1004B00087EC92E06DD19CD082EE92E069D1FF246E
:1004C000F39419C00F2D0F2C000C110B01501109C2
:1004D000000F111F000F111F000F111F98012C5A40
:1004E0003C4F6901C90160DEC6011CDEC8018458A9
:1004F0009C4F2BDEF39435E03F1524F78CEA93E014
:1005000053DE8CEA93E00EDE84EA93E03BDE84EA7D
:1005100093E008DE83EF92E03BD1198281E08A8389
:100520008B8384EA93E02EDE8B8155DE89818330D4
:1005300018F4813040F00CC0843081F0B8F0853080
:10054000A9F015E01AC06B818A819BDF182F15C0B6
:1005500019819A818B81981310C00AC09A818B816E
:10056000981744F0891744F411E007C010E005C063
:1005700013E003C012E001C010E099818B81282FA5
:10058000082E000C330B3F938F938A81282F082E5F
:10059000000C330B3F938F931F921F931F929F93D7
:1005A00089E093E09F938F93E0D089810FB6F89410
:1005B000DEBF0FBECDBF181309C08981AE014D5FEC
:1005C0005F4FBE016E5F7F4F83DEB0CF8981AE018A
:1005D0004D5F5F4FBE016E5F7F4FC2DE1983898121
:1005E000AE014D5F5F4FBE016E5F7F4FE4DE9ECF79
:1005F0000F931F93CF93DF93ECE7F3E042E250E0D9
:100600005183408320E230E03783268381E290E00B
:100610009383828315821482518740873787268788
:1006200093878287A1E0B0E0B587A487518B408B88
:10063000378B268B938B828BC2E0D0E0D58BC48B1B
:10064000518F408F378F268F938F828F63E070E0BA
:10065000758F648F51A340A337A326A393A382A3CE
:1006600004E010E015A304A3E4E5F3E048E250E061
:100670005183408326E230E03783268387E290E08F
:100680009383828315830483518740873787268726
:100690009387828775876487518B408B378B268B36
:1006A000938B828BD58BC48B518F408F378F268F46
:1006B000938F828FB58FA48F51A340A337A326A316
:1006C00093A382A315A214A2E4EAF3E042E051E06E
:1006D0005183408320E031E03783268381E091E03D
:1006E0009383828375836483ECEAF3E051834083D0
:1006F000378326839383828315830483DF91CF918D
:100700001F910F9108959093C5008093C400E1EC70
:10071000F0E0808188618083E2ECF0E080818E608F
:10072000808308959091C00095FFFCCF8093C60010
:1007300080E090E008958091C0008823E4F78091E4
:10074000C6008D3009F48AE090E0089587E690E0D5
:10075000DADFE4EBF3E08EE092E09383828380E0E3
:1007600092E09183808380E00895CF93DF93CDB7AB
:10077000DEB7AE014A5F5F4FFA0161917191AF013F
:100780008091B6039091B70333D0DF91CF91089554
:100790000F931F93CF93DF93E091B603F091B703CC
:1007A000238121FF1BC08C01D0E0C0E0F8018191C2
:1007B0008F016091B6037091B703DB011896ED913C
:1007C000FC911997882331F01995892B79F3DFEF84
:1007D000CFEFECCF8AE01995892B19F08FEF9FEFBF
:1007E00002C08D2F9C2FDF91CF911F910F91089503
:1007F0002F923F924F925F926F927F928F929F9231
:10080000AF92BF92CF92DF92EF92FF920F931F931E
:10081000CF93DF93CDB7DEB72B970FB6F894DEBF3B
:100820000FBECDBF6C017B018A01FC0117821682CD
:10083000838181FFBFC1CE0101963C01F601938106
:10084000F70193FD859193FF81917F01882309F43E
:10085000ADC1853239F493FD859193FF81917F017C
:10086000853221F4B60190E0D6D1E8CF912C212C2D
:10087000312CFFE1F315D8F08B3279F038F4803267
:1008800079F08332A1F4232D20611DC08D3261F0F7
:10089000803369F4232D216016C0832D8260382EA9
:1008A000E32DE4603E2E2AC0F32DF8601DC037FC16
:1008B0002DC020ED280F2A3040F08E32B9F436FCDE
:1008C00075C1232D2064322E19C036FE06C08AE081
:1008D000989E200D1124922E11C0EAE02E9E200D2C
:1008E0001124222EF32DF0623F2E08C08C3621F405
:1008F000832D8068382E02C0883641F4F70193FDBD
:10090000859193FF81917F018111B3CF982F9F7DB6
:100910009554933028F40C5F1F4F9FE399830DC0CB
:10092000833631F0833771F0833509F055C020C02C
:10093000F801808189830E5F1F4F88248394912C56
:10094000530112C02801F2E04F0E511CF801A080A3
:10095000B18036FE03C0692D70E002C06FEF7FEFFB
:10096000C5014ED14C018201F32DFF773F2E15C0FA
:10097000280122E0420E511CF801A080B18036FE11
:1009800003C0692D70E002C06FEF7FEFC5012DD16C
:100990004C01F32DF0683F2E820133FC19C0822DEB
:1009A00090E088169906A0F4B60180E290E033D179
:1009B0002A94F5CFF50137FC859137FE81915F01CF
:1009C000B60190E028D121102A9421E0821A9108E2
:1009D0008114910479F7E1C0843611F0893639F534
:1009E000F80137FE07C060817181828193810C5FBD
:1009F0001F4F08C060817181072E000C880B990B76
:100A00000E5F1F4FF32DFF763F2E97FF09C0909585
:100A10008095709561957F4F8F4F9F4FF0683F2E67
:100A20002AE030E0A30133D1882E861844C08537F0
:100A300031F4232D2F7EB22E2AE030E025C0932DF5
:100A4000997FB92E8F36C1F018F4883579F0AEC091
:100A5000803719F0883721F0A9C0E92FE061BE2E58
:100A6000B4FE0DC0FB2DF460BF2E09C034FE0AC0D9
:100A7000292F2660B22E06C028E030E005C020E114
:100A800030E002C020E132E0F801B7FE07C060812B
:100A90007181828193810C5F1F4F06C060817181DB
:100AA00080E090E00E5F1F4FA301F1D0882E8618E2
:100AB000FB2DFF773F2E36FE0DC0232D2E7FA22E5D
:100AC000891458F434FE0BC032FC09C0832D8E7E8D
:100AD000A82E05C0B82CA32C03C0B82C01C0B92C7B
:100AE000A4FE0FC0FE01E80DF11D8081803321F4CA
:100AF0009A2D997EA92E09C0A2FE06C0B394B39484
:100B000004C08A2D867809F0B394A3FC10C0A0FE1F
:100B100006C0B21480F4280C922C9B180DC0B2149D
:100B200058F4B60180E290E076D0B394F8CFB214D6
:100B300018F42B1802C0982C212CA4FE0FC0B6016B
:100B400080E390E068D0A2FE16C0A1FC03C088E755
:100B500090E002C088E590E0B6010CC08A2D86784E
:100B600051F0A1FE02C08BE201C080E2A7FC8DE241
:100B7000B60190E050D0891430F4B60180E390E0E3
:100B80004AD09A94F8CF8A94F301E80DF11D808140
:100B9000B60190E040D08110F6CF222009F44ECE6D
:100BA000B60180E290E037D02A94F7CFF601868133
:100BB000978102C08FEF9FEF2B960FB6F894DEBFA0
:100BC0000FBECDBFDF91CF911F910F91FF90EF909E
:100BD000DF90CF90BF90AF909F908F907F906F905D
:100BE0005F904F903F902F900895FC0105906150C9
:100BF00070400110D8F7809590958E0F9F1F089533
:100C0000FC016150704001900110D8F780959095DB
:100C10008E0F9F1F08950F931F93CF93DF93FB01B8
:100C2000238121FD03C08FEF9FEF2CC022FF16C050
:100C300046815781248135814217530744F4A081AE
:100C4000B1819D012F5F3F4F318320838C9326819B
:100C500037812F5F3F4F3783268314C08B01EC0110
:100C6000FB010084F185E02D1995892BE1F6D8016F
:100C700016968D919C911797019617969C938E933B
:100C80001697CE01DF91CF911F910F910895FA0130
:100C9000AA27283051F1203181F1E8946F936E7FBB
:100CA0006E5F7F4F8F4F9F4FAF4FB1E03ED0B4E0AC
:100CB0003CD0670F781F891F9A1FA11D680F791FED
:100CC0008A1F911DA11D6A0F711D811D911DA11DFE
:100CD00020D009F468943F912AE0269F112430190E
:100CE000305D3193DEF6CF010895462F4770405DA9
:100CF0004193B3E00FD0C9F7F6CF462F4F70405D58
:100D00004A3318F0495D31FD4052419302D0A9F7B2
:100D1000EACFB4E0A6959795879577956795BA95AC
:100D2000C9F700976105710508959B01AC010A2E72
:100D300006945795479537952795BA95C9F7620F49
:0E0D4000731F841F951FA01D0895F894FFCF08
:100D4E00000000010000000000009B0300000000F6
:100D5E00000200000000920300000000536574744E
:100D6E00696E6720666C6F6F72202564204C454457
:100D7E00204F4E2E0D0A0072656164696E67206702
:100D8E0070696F2070696E20696E707574202564AD
:100D9E0020726573756C74202564200D0A005365EE
:100DAE007474696E6720666C6F6F72202564204CB8
:100DBE004544204F46462E0D0A006F6E5F6C6F6FD6
:100DCE00702063757272656E745F73746174653AC8
:100DDE002025640D0A006F6E5F65786974206F6C54
:100DEE00645F73746174653A2025640D0A006F6E3A
:100DFE005F656E746572206E65775F73746174657E
:100E0E003A2025640D0A00436F6E66696775726934
:100E1E006E67204750494F206D617070696E672E66
:100E2E000D00436F6E6669677572696E6720494F74
:100E3E002E0D00436F6E6669677572696E67204985
:100E4E004F20646F6E652E0D00656C657661746F54
:100E5E00725F73746174653A202564206E657874D0
:100E6E005F73746174653A202564207265717565CF
:100E7E00737465645F666C6F6F723A2025642C2004
:100E8E0063757272656E745F666C6F6F723A202551
:040E9E00640D0A00D5
:00000001FF
