:100000000C9476000C9497000C9497000C94970035
:100010000C9497000C9497000C9497000C94970004
:100020000C9497000C9497000C9497000C949700F4
:100030000C9497000C9497000C9497000C949700E4
:100040000C9497000C9497000C9497000C949700D4
:100050000C9497000C9497000C9497000C949700C4
:100060000C9497000C9497000C9497000C949700B4
:100070000C9497000C9497000C9497000C949700A4
:100080000C9497000C9497000C9497000C94970094
:100090000C9497000C9497000C9497000C94970084
:1000A0000C9497000C9497000C9497000C94970074
:1000B0000C9497000C9497000C9497000C94970064
:1000C0000C9497000C9497000C9497000C94970054
:1000D0000C9497000C9497000C9497000C94970044
:1000E0000C9497000C9499000C94A20011241FBE4C
:1000F000CFEFD1E2DEBFCDBF00E00CBF13E0A0E048
:10010000B2E0EEE1FDE000E00BBF02C007900D920F
:10011000A836B107D9F723E0A8E6B3E001C01D92E5
:10012000AE38B207E1F70E94AC020C948D060C9435
:1001300000009091C00095FFFCCF8093C60090E036
:1001400080E008958091C00087FFFCCF8091C600B9
:100150008D3009F48AE0082E000C990B0895109256
:10016000C50087E68093C400E1ECF0E080818861FF
:100170008083E2ECF0E080818E608083E8E8F3E049
:100180008EE092E09383828380E092E0918380838B
:1001900080E00895009709F408952FEF33ED40E3D0
:1001A000215030404040E1F700C000000197F2CFFD
:1001B0000F931F93CF93DF938C0160E270E00E9456
:1001C00065038032A9F484E992E00E948A03E80181
:1001D000005E1F4F8991082E000C990B0E9484032A
:1001E000C017D107B9F789E393E00E948A03FFCFD4
:1001F0001F930F9383ED92E09F938F930E94700360
:100200000F900F900F900F90C801DF91CF911F9129
:100210000F910C944B020E94AF008111FFCF0E94FE
:10022000260186EE92E00E948A038CE00E9465021D
:100230008BEF92E00E948A030E9431028DE093E0EE
:100240000E948A038BE193E00C94D80080EF8093A6
:10025000070108959FE090930801809106018F7037
:100260008F30C9F7EFE9FFE03197F1F700C00000E8
:1002700080930801809106018F708F3061F7089597
:100280009FE090930801809106018F708F30C9F331
:10029000EFE9FFE03197F1F700C00000909308010B
:1002A000809106018F708F3061F308950E942A01BA
:1002B0008FE99FE00197F1F700C000000E94400124
:1002C00024E09FEE90930801EFE9FFE03197F1F70A
:1002D00000C00000809106018F708F3021F4990FCB
:1002E0009F5F215079F7E9E8E80F907FE90FE83741
:1002F00028F4F0E0E45EFD4F808108958AE70895D8
:100300002D9A85E08A95F1F700002D980895CF93F6
:10031000C82F80910201662309F444C08064809351
:1003200002012C986D9A9D9A6B9A809101018860C8
:100330008093010180910201877F8093020173986D
:10034000A5987598C7FF05C08091020188608093C9
:100350000201C6FD739AC5FDA59AC4FD759A0E9457
:10036000800180910201877F809302017398A59894
:100370007598C3FF05C080910201886080930201D7
:10038000C2FD739AC1FDA59AC0FD759A0E948001B5
:10039000759AA59A739A80910201886080930201F0
:1003A000CF9108958F7BBBCF809102018F7B80938B
:1003B00002012C9A6D989D986B9880910101877F1E
:1003C000809301012D9A85E08A95F1F70000659BE5
:1003D0001FC080E1959980626399806490910001CB
:1003E00093FD80682D9895E09A95F1F700002D9A7D
:1003F00095E09A95F1F70000659981609599826082
:10040000639984609091000193FD88602D98089510
:1004100080E0E0CF0E94D40187FDFCCF85E18A9582
:10042000F1F700000C94D401CF93C82F0E940A0268
:1004300060E08C2FCF910C948701CF93C82F0E943E
:100440000A0261E08C2FCF910C948701611103C0E7
:1004500080580C9414028054FCCF0E940A0290E051
:10046000089581E00C94140282E00C941402CF935E
:10047000C82F0E940A02CA3049F4803428F080E074
:100480008058CF910C94140280E4FACF61E08C2F55
:10049000CF910C948701CF93DF93EC018991811167
:1004A00003C0DF91CF9108950E943702F7CFCF9319
:1004B000DF93EC01FE0184912196811103C0DF914D
:1004C000CF9108950E943702F5CFCF93C82FE1E076
:1004D000F1E0808180648083249A259A6D9A9D9AA8
:1004E0006B9A8081886080838FEF99EF0197F1F795
:1004F00000C00000A59A759A0E9480018FE19EE4D9
:100500000197F1F700C000000E9480018FEF90E09A
:100510000197F1F700C000000E9480018FEF90E08A
:100520000197F1F700C0000075980E9480018FEFDD
:1005300090E00197F1F700C0000088E20E941402E9
:1005400088E00E9414020E94310286E00E94140298
:100550008C2FCF910C9414020E940B01C12CD12C32
:1005600076010BE313E08AE0882E912CA12CB12CAC
:1005700090E2292EC8E6D3E081E293E00E948A034C
:100580000E945601382E1F928F931F930F930E9443
:10059000700380ED830D0F900F900F900F908A30B5
:1005A00008F050C0482E512C712C612CC301B201AF
:1005B0006095709580959095A50194010E942903FE
:1005C0002C153D054E055F0560F0AAE0B0E0A701DF
:1005D00096010E944B0373016201C60ED71EE81EEE
:1005E000F91E0E9431021F923F928FE493E09F9385
:1005F0008F931F922F92DF93CF930E94B50388E6CB
:1006000093E00E94D8008DE493E00E94D800FF920E
:10061000EF92DF92CF928FE593E09F938F931F929B
:100620002F92DF93CF930E94B50388E693E00E9458
:10063000D8008DB79EB742960FB6F8949EBF0FBEF6
:100640008DBF9ACF2AE23212CCCFC12CD12C7601A9
:10065000C8CFA1E21A2EAA1BBB1BFD010DC0AA1F09
:10066000BB1FEE1FFF1FA217B307E407F50720F01B
:10067000A21BB30BE40BF50B661F771F881F991F96
:100680001A9469F760957095809590959B01AC01DF
:10069000BD01CF0108950E945603A59F900DB49F00
:1006A000900DA49F800D911D11240895A29FB0016B
:1006B000B39FC001A39F700D811D1124911DB29F96
:1006C000700D811D1124911D0895FC016150704031
:1006D00001900110D8F7809590958E0F9F1F089577
:1006E000CF93DF93CDB7DEB7AE014A5F5F4FFA011C
:1006F00061917191AF0180918A0390918B030E9467
:10070000F203DF91CF91089560918A0370918B037A
:100710000C94FF050F931F93CF93DF93E0918A030F
:10072000F0918B032381EC0110E000E021FD08C073
:100730000FEF1FEF14C01995892B11F00FEF1FEF6A
:10074000899160918A0370918B03DB011896ED917A
:10075000FC918111F0CF8AE01995892B49F7C801E6
:10076000DF91CF911F910F9108950F931F93CF9316
:10077000DF93CDB7DEB72E970FB6F894DEBF0FBE6E
:10078000CDBF0E891F89888D998D26E02C831A8311
:10079000098397FF02C080E090E801979E838D83D4
:1007A000AE01445E5F4F6A8D7B8DCE0101960E9443
:1007B000F2034D815E8157FD0AC02F8138854217B3
:1007C00053070CF49A01020F131FF80110822E96A2
:1007D0000FB6F894DEBF0FBECDBFDF91CF911F9152
:1007E0000F9108952F923F924F925F926F927F9256
:1007F0008F929F92AF92BF92CF92DF92EF92FF9231
:100800000F931F93CF93DF9300D000D000D01F929F
:100810001F92CDB7DEB77C013B018A01FC01178234
:100820001682838181FFDDC1CE0101965C01F70153
:100830009381F30193FD859193FF81913F0188237B
:1008400009F453C1853239F493FD859193FF819169
:100850003F01853229F4B70190E00E94FF05E7CF00
:10086000912C212C312CFFE1F31538F08B3211F152
:1008700090F4803209F1833229F137FC3CC020ED3D
:10088000280F2A3050F536FE20C08AE0989E200DB1
:100890001124922E06C08D3291F0803371F7689446
:1008A00030F8F30193FD859193FF81913F01811110
:1008B000DACF21C0689431F8689432F8F2CF6894A6
:1008C00033F8EFCF689434F8ECCFEAE02E9E200D99
:1008D0001124222E689435F8E4CF8E3229F436FCA8
:1008E00004C1689436F8DDCF8C3619F4689437F873
:1008F000D8CF8836B1F2982F9F7D95549330E0F091
:100900008336A1F18337C1F1833509F063C0280133
:10091000F2E04F0E511CF801C080D180692D70E0CB
:1009200036FC02C06FEF7FEFC6010E94F4054C0158
:10093000689437F882010AC00C5F1F4FFFE3F98308
:1009400088248394912C6501E89437F833FE2DC0F8
:10095000522C8114910471F5552009F468CFB70128
:1009600080E290E00E94FF055A94F6CFF801808162
:1009700089830E5F1F4FE4CF2801F2E04F0E511C18
:10098000F801C080D180692D70E036FC02C06FEFA5
:100990007FEFC6010E9465034C018201D5CFB701EC
:1009A00080E290E00E94FF052A942814190409F0BF
:1009B000B0F7CECFF60137FC859137FE81916F01FC
:1009C000B70190E00E94FF0551105A94F1E08F1A90
:1009D0009108BFCF843619F0893609F077C0F80145
:1009E00037FE6BC060817181828193810C5F1F4FE4
:1009F000F32DFF763F2E97FF09C090958095709557
:100A000061957F4F8F4F9F4F689437F82AE030E011
:100A1000A5010E942F06C82ECA188C2C432C36FE26
:100A20000CC0E89440F8C91440F434FE05C032FC10
:100A300003C0F32DFE7E4F2E892C44FEAAC0FE017A
:100A4000EC0DF11D8081803309F09CC0242D297E9E
:100A5000422E842D8870582E43FCAAC040FEA4C0AC
:100A60009C2C821418F42C0C922C981844FEA6C0CE
:100A7000B70180E390E00E94FF0542FE09C088E7CD
:100A800090E041FE02C088E590E0B7010E94FF05BA
:100A9000C91408F49FC0CA94D12C9FEFC91AD90A6F
:100AA000CA0CDB1CF60182916F01B70190E00E9435
:100AB000FF05AC14BD04B1F74FCF60817181072EE3
:100AC000000C880B990B0E5F1F4F92CFD32CE8942C
:100AD000D4F82AE030E08537E1F1232D297FD22EAA
:100AE0008F36A9F1F0F4883551F1F70186819781AD
:100AF0002B960FB6F894DEBF0FBECDBFDF91CF911E
:100B00001F910F91FF90EF90DF90CF90BF90AF902B
:100B10009F908F907F906F905F904F903F902F901D
:100B20000895803749F0883701F7D4FE02C06894F1
:100B3000D2F820E130E00DC06894D4F8F6CF34FE4E
:100B400003C0822F8660D82E20E132E002C028E068
:100B500030E0F801D7FE0FC06081718182819381FE
:100B60000C5F1F4FA5010E942F06C82ECA183D2CEE
:100B7000E89437F852CF6081718190E080E00E5F99
:100B80001F4FF0CF42FC02C0839463CF83948394C1
:100B900060CF842D867809F45CCFF6CFB70180E270
:100BA00090E00E94FF0583948214C0F3512C5ECF25
:100BB000522C5818821408F459CFF8CF842D867817
:100BC00009F466CF8BE241FE80E247FC8DE2B7017B
:100BD00090E05CCFB70180E390E00E94FF059A941B
:100BE00057CF8FEF9FEF84CFFC010590615070408D
:100BF0000110D8F7809590958E0F9F1F08950F9341
:100C00001F93CF93DF93182F092FEB018B8181FD69
:100C100009C01FEF0FEF812F902FDF91CF911F9110
:100C20000F91089582FF14C02E813F818C819D8198
:100C3000281739073CF4E881F981CF01019699839F
:100C4000888310838E819F8101969F838E83E3CF5B
:100C5000E885F985812F1995892BA1F3DACFFA015F
:100C6000AA27283051F1203181F1E8946F936E7FEB
:100C70006E5F7F4F8F4F9F4FAF4FB1E03ED0B4E0DC
:100C80003CD0670F781F891F9A1FA11D680F791F1D
:100C90008A1F911DA11D6A0F711D811D911DA11D2E
:100CA00020D009F468943F912AE0269F112430193E
:100CB000305D3193DEF6CF010895462F4770405DD9
:100CC0004193B3E00FD0C9F7F6CF462F4F70405D88
:100CD0004A3318F0495D31FD4052419302D0A9F7E3
:100CE000EACFB4E0A6959795879577956795BA95DD
:100CF000C9F700976105710508959B01AC010A2EA3
:100D000006945795479537952795BA95C9F7620F79
:0E0D1000731F841F951FA01D0895F894FFCF38
:100D1E0000000001000000000000A2000000000022
:100D2E00000200000000990000000000447A7A7A68
:100D3E00437A42417A7A7A7A7A7A7A7A7A7A7A7AAD
:100D4E007A7A7A7A7A7A7A7A7A7A7A7A7A7A7A7AF5
:100D5E007A7A7A7A7A7A7A7A7A7A7A7A7A7A7A7AE5
:100D6E007A7A7A7A7A7A7A7A7A7A7A7A237A7A7A2C
:100D7E00397A36337A7A7A7A7A7A7A7A7A7A7A7A91
:100D8E007A7A7A7A7A7A7A7A7A7A7A7A307A7A7AFF
:100D9E00387A35327A7A7A7A7A7A7A7A2A7A7A7AC4
:100DAE00377A34314661696C656420746F207072D5
:100DBE00696E74204C434420737472696E672E20E2
:100DCE00546F6F20626967206F72206C61636B7362
:100DDE00204E554C4C2D7465726D696E61746F7238
:100DEE002E0D004C4344206F75747075743A202795
:100DFE002573270D0A004B657970616420696E6951
:100E0E007469616C697A65642E0D004C43442069E7
:100E1E006E697469616C697A65642E0D004C434489
:100E2E0020636C65617265642E0D00526561647994
:100E3E000057616974696E6720666F72206B657901
:100E4E002070726573732E2E2E0D004B65792070F7
:100E5E007265737365643A20272563270D0A004B6C
:100E6E00657920707265737365643A202563004D51
:080E7E00656D3A20256C75003A
:00000001FF
