:1000000071C000008EC000008CC000008AC00000DB
:1000100088C0000086C0000084C0000082C00000CC
:1000200080C000007EC000007CC000007AC00000DC
:1000300078C0000076C0000074C0000072C00000EC
:1000400070C000006EC000006CC000006AC00000FC
:1000500068C0000066C0000064C0000062C000000C
:1000600060C000005EC000005CC000005AC000001C
:1000700058C0000056C0000054C0000052C000002C
:1000800050C000004EC000004CC000004AC000003C
:1000900048C0000046C0000044C0000042C000004C
:1000A00040C000003EC000003CC000003AC000005C
:1000B00038C0000036C0000034C0000032C000006C
:1000C00030C000002EC000002CC000002AC000007C
:1000D00028C0000026C0000024C0000022C000008C
:1000E00020C0000011241FBECFEFD1E2DEBFCDBF84
:1000F00000E00CBF12E0A0E0B2E0EEE9FAE000E0C0
:100100000BBF02C007900D92AA3FB107D9F723E0B9
:10011000AAEFB2E001C01D92A030B207E1F797D17B
:10012000BCC46ECF80EF80930701089585B18062D3
:1001300085B9000085B18F7D85B90895CF93C82F0B
:10014000662331F0E2E0F1E080818064808305C0C5
:10015000E2E0F1E080818F7B808385B18F7E85B97D
:100160008DB180628DB983B3806283BB8DB18860AD
:100170008DB9E1E0F1E0808188608083E2E0F1E028
:100180008081877F80838EB1877F8EB984B38F7D96
:1001900084BB8EB18F7D8EB9CC231CF480818860A6
:1001A0008083C6FF03C08EB188608EB9C5FF03C0CF
:1001B00084B3806284BBC4FF03C08EB180628EB9F9
:1001C000B5DFE2E0F1E08081877F80838EB1877FB9
:1001D0008EB984B38F7D84BB8EB18F7D8EB9C3FF02
:1001E00003C0808188608083C2FF03C08EB18860B5
:1001F0008EB9C1FF03C084B3806284BBC0FF03C05B
:100200008EB180628EB992DF8EB180628EB984B376
:10021000806284BB8EB188608EB9E2E0F1E08081BB
:1002200088608083CF910895882331F0E2E0F1E087
:1002300080818064808305C0E2E0F1E080818F7B73
:10024000808385B1806185B98DB18F7D8DB983B390
:100250008F7D83BB8DB1877F8DB9E1E0F1E0808137
:10026000877F808385B1806285B90000659902C06F
:1002700080E001C080E195998062639980649091EB
:10028000000193FD806895B19F7D95B9000095B1FF
:10029000906295B900006599816095998260639933
:1002A00084609091000193FD886095B19F7D95B920
:1002B000089580E0B9DF8823E4F300C000C080E047
:1002C000B3CF0895CF93C82FF4DF60E08C2F36DFD3
:1002D000CF91089581E0F6CF0895CF93C82FE9DF3D
:1002E000CA3041F4803410F480E401C080E08058CA
:1002F000E9DF03C061E08C2F21DFCF910895CF9318
:10030000DF93FC0102C0E9DFFE01EF01219680814D
:100310008111F9CFDF91CF910895CF93C82FE1E0FC
:10032000F1E080818064808384B1806184B984B18C
:10033000806284B98DB180628DB983B3806283BBE2
:100340008DB188608DB98081886080838FE99FE05E
:100350000197F1F700C0000084B3806284BB8EB1C6
:1003600080628EB9E3DE81EE94E00197F1F700C080
:100370000000DCDE95E19A95F1F70000D7DE85E11B
:100380008A95F1F700008EB18F7D8EB9CFDE95E1B1
:100390009A95F1F7000088E295DF88E093DF9ADF15
:1003A00086E090DF8C2F8EDFCF9108958111FFCFF3
:1003B00008950F931F93CF93DF938C0160E270E059
:1003C00077D0D82F8032A1F48CE192E094D0C0E0B5
:1003D00007C0F801EC0FF11D808190E087D0CF5F5E
:1003E000CD17B8F38FED92E086D081E0DFDF0DC04E
:1003F0001F930F938BE592E09F938F9364D0C80176
:100400007EDF0F900F900F900F90DF91CF911F9193
:100410000F9108958EE692E06ED03BD0C7DF89E859
:1004200092E069D083EA92E066D07CDEBFDF89EBA0
:1004300092E061D08EEC92E05ED08CE06EDF4ADF1D
:1004400081EE92E058D083EF92E0B3CF0895E2DFDF
:10045000FFCF9093C5008093C400E1ECF0E0808171
:1004600088618083E2ECF0E080818E608083089573
:100470009091C00095FFFCCF8093C60080E090E093
:1004800008958091C0008823E4F78091C60090E031
:10049000089587E690E0DDDFEAEFF2E08EE092E09B
:1004A0009383828380E092E09183808380E008954B
:1004B000FC016150704001900110D8F78095909533
:1004C0008E0F9F1F0895CF93DF93CDB7DEB7AE0198
:1004D0004A5F5F4FFA0161917191AF018091FC0217
:1004E0009091FD0238D0DF91CF9108956091FC0288
:1004F0007091FD0238C20F931F93CF93DF93E09169
:10050000FC02F091FD02238121FF1BC08C01D0E091
:10051000C0E0F80181918F016091FC027091FD02B1
:10052000DB011896ED91FC911997882331F019950C
:10053000892B79F3DFEFCFEFECCF8AE01995892B88
:1005400019F08FEF9FEF02C08D2F9C2FDF91CF917D
:100550001F910F9108952F923F924F925F926F9249
:100560007F928F929F92AF92BF92CF92DF92EF9243
:10057000FF920F931F93CF93DF93CDB7DEB72B97E7
:100580000FB6F894DEBF0FBECDBF6C017B018A01B0
:10059000FC0117821682838181FFBFC1CE010196C3
:1005A0003C01F6019381F70193FD859193FF8191C1
:1005B0007F01882309F4ADC1853239F493FD85911B
:1005C00093FF81917F01853221F4B60190E0CBD178
:1005D000E8CF912C212C312CFFE1F315D8F08B3290
:1005E00079F038F4803279F08332A1F4232D206140
:1005F0001DC08D3261F0803369F4232D216016C057
:10060000832D8260382EE32DE4603E2E2AC0F32D28
:10061000F8601DC037FC2DC020ED280F2A3040F0B7
:100620008E32B9F436FC75C1232D2064322E19C0E8
:1006300036FE06C08AE0989E200D1124922E11C02D
:10064000EAE02E9E200D1124222EF32DF0623F2E83
:1006500008C08C3621F4832D8068382E02C088367D
:1006600041F4F70193FD859193FF81917F01811101
:10067000B3CF982F9F7D9554933028F40C5F1F4F74
:100680009FE399830DC0833631F0833771F0833552
:1006900009F055C020C0F801808189830E5F1F4F8B
:1006A00088248394912C530112C02801F2E04F0E4C
:1006B000511CF801A080B18036FE03C0692D70E0A6
:1006C00002C06FEF7FEFC501F3DE4C018201F32D15
:1006D000FF773F2E15C0280122E0420E511CF80181
:1006E000A080B18036FE03C0692D70E002C06FEFBC
:1006F0007FEFC5012DD14C01F32DF0683F2E820113
:1007000033FC19C0822D90E088169906A0F4B6013A
:1007100080E290E028D12A94F5CFF50137FC85914D
:1007200037FE81915F01B60190E01DD121102A941E
:1007300021E0821A91088114910479F7E1C084368E
:1007400011F0893639F5F80137FE07C060817181F3
:10075000828193810C5F1F4F08C060817181072ED9
:10076000000C880B990B0E5F1F4FF32DFF763F2E69
:1007700097FF09C090958095709561957F4F8F4F39
:100780009F4FF0683F2E2AE030E0A30128D1882E49
:10079000861844C0853731F4232D2F7EB22E2AE0EF
:1007A00030E025C0932D997FB92E8F36C1F018F413
:1007B000883579F0AEC0803719F0883721F0A9C0AC
:1007C000E92FE061BE2EB4FE0DC0FB2DF460BF2EFC
:1007D00009C034FE0AC0292F2660B22E06C028E0C8
:1007E00030E005C020E130E002C020E132E0F80155
:1007F000B7FE07C060817181828193810C5F1F4FBA
:1008000006C06081718180E090E00E5F1F4FA30100
:10081000E6D0882E8618FB2DFF773F2E36FE0DC0C2
:10082000232D2E7FA22E891458F434FE0BC032FCE7
:1008300009C0832D8E7EA82E05C0B82CA32C03C022
:10084000B82C01C0B92CA4FE0FC0FE01E80DF11DAB
:100850008081803321F49A2D997EA92E09C0A2FEB1
:1008600006C0B394B39404C08A2D867809F0B3947B
:10087000A3FC10C0A0FE06C0B21480F4280C922C79
:100880009B180DC0B21458F4B60180E290E06BD012
:10089000B394F8CFB21418F42B1802C0982C212C62
:1008A000A4FE0FC0B60180E390E05DD0A2FE16C0AA
:1008B000A1FC03C088E790E002C088E590E0B601A3
:1008C0000CC08A2D867851F0A1FE02C08BE201C0D7
:1008D00080E2A7FC8DE2B60190E045D0891430F4A7
:1008E000B60180E390E03FD09A94F8CF8A94F30168
:1008F000E80DF11D8081B60190E035D08110F6CF72
:10090000222009F44ECEB60180E290E02CD02A9449
:10091000F7CFF6018681978102C08FEF9FEF2B966C
:100920000FB6F894DEBF0FBECDBFDF91CF911F9100
:100930000F91FF90EF90DF90CF90BF90AF909F907E
:100940008F907F906F905F904F903F902F90089581
:10095000FC010590615070400110D8F7809590958A
:100960008E0F9F1F08950F931F93CF93DF93FB016B
:10097000238121FD03C08FEF9FEF2CC022FF16C003
:1009800046815781248135814217530744F4A08161
:10099000B1819D012F5F3F4F318320838C9326814E
:1009A00037812F5F3F4F3783268314C08B01EC01C3
:1009B000FB010084F185E02D1995892BE1F6D80122
:1009C00016968D919C911797019617969C938E93EE
:1009D0001697CE01DF91CF911F910F910895FA01E3
:1009E000AA27283051F1203181F1E8946F936E7F6E
:1009F0006E5F7F4F8F4F9F4FAF4FB1E03ED0B4E05F
:100A00003CD0670F781F891F9A1FA11D680F791F9F
:100A10008A1F911DA11D6A0F711D811D911DA11DB0
:100A200020D009F468943F912AE0269F11243019C0
:100A3000305D3193DEF6CF010895462F4770405D5B
:100A40004193B3E00FD0C9F7F6CF462F4F70405D0A
:100A50004A3318F0495D31FD4052419302D0A9F765
:100A6000EACFB4E0A6959795879577956795BA955F
:100A7000C9F700976105710508959B01AC010A2E25
:100A800006945795479537952795BA95C9F7620FFC
:0E0A9000731F841F951FA01D0895F894FFCFBB
:100A9E000000000100000000000041020000000004
:100AAE000002000000003802000000004661696C80
:100ABE00656420746F207072696E74204C434420FC
:100ACE00737472696E672E20546F6F20626967208F
:100ADE006F72206C61636B73204E554C4C2D746598
:100AEE00726D696E61746F722E0D004C4344206FEF
:100AFE0075747075743A20272573270D0A00496E98
:100B0E00697469616C697A696E672073657269616F
:100B1E006C20706F72742E0D0053657269616C20BB
:100B2E00706F727420696E697469616C697A65643C
:100B3E002E0D00496E697469616C697A696E672061
:100B4E006B65797061642E0D004B65797061642060
:100B5E00696E697469616C697A65642E0D00496EFF
:100B6E00697469616C697A696E67204C43442E0D15
:100B7E00004C434420696E697469616C697A6564DE
:0A0B8E002E0D00526561647900002D
:00000001FF
